{
  "contractName": "PlaceDeMarche",
  "abi": [
    {
      "inputs": [],
      "payable": false,
      "stateMutability": "nonpayable",
      "type": "constructor"
    },
    {
      "anonymous": false,
      "inputs": [
        {
          "indexed": true,
          "internalType": "uint256",
          "name": "_id",
          "type": "uint256"
        },
        {
          "indexed": true,
          "internalType": "address",
          "name": "_entreprise",
          "type": "address"
        },
        {
          "indexed": false,
          "internalType": "string",
          "name": "_name",
          "type": "string"
        },
        {
          "indexed": false,
          "internalType": "uint256",
          "name": "_remuneration",
          "type": "uint256"
        }
      ],
      "name": "LogAjouterDemande",
      "type": "event"
    },
    {
      "anonymous": false,
      "inputs": [
        {
          "indexed": true,
          "internalType": "uint256",
          "name": "_id",
          "type": "uint256"
        },
        {
          "indexed": true,
          "internalType": "address",
          "name": "_entreprise",
          "type": "address"
        },
        {
          "indexed": true,
          "internalType": "address",
          "name": "_illustrateur",
          "type": "address"
        },
        {
          "indexed": false,
          "internalType": "string",
          "name": "_name",
          "type": "string"
        },
        {
          "indexed": false,
          "internalType": "uint256",
          "name": "_remuneration",
          "type": "uint256"
        }
      ],
      "name": "LogPostuler",
      "type": "event"
    },
    {
      "constant": true,
      "inputs": [
        {
          "internalType": "uint256",
          "name": "",
          "type": "uint256"
        },
        {
          "internalType": "uint256",
          "name": "",
          "type": "uint256"
        }
      ],
      "name": "candidates",
      "outputs": [
        {
          "internalType": "address",
          "name": "",
          "type": "address"
        }
      ],
      "payable": false,
      "stateMutability": "view",
      "type": "function"
    },
    {
      "constant": true,
      "inputs": [
        {
          "internalType": "uint256",
          "name": "",
          "type": "uint256"
        }
      ],
      "name": "dataLimte",
      "outputs": [
        {
          "internalType": "uint256",
          "name": "",
          "type": "uint256"
        }
      ],
      "payable": false,
      "stateMutability": "view",
      "type": "function"
    },
    {
      "constant": true,
      "inputs": [
        {
          "internalType": "uint256",
          "name": "",
          "type": "uint256"
        }
      ],
      "name": "demandes",
      "outputs": [
        {
          "internalType": "uint256",
          "name": "id",
          "type": "uint256"
        },
        {
          "internalType": "address",
          "name": "entreprise",
          "type": "address"
        },
        {
          "internalType": "address",
          "name": "illustrateur",
          "type": "address"
        },
        {
          "internalType": "uint256",
          "name": "remuneration",
          "type": "uint256"
        },
        {
          "internalType": "uint256",
          "name": "delai",
          "type": "uint256"
        },
        {
          "internalType": "string",
          "name": "description",
          "type": "string"
        },
        {
          "internalType": "enum PlaceDeMarche.Etat",
          "name": "etatDemande",
          "type": "uint8"
        },
        {
          "internalType": "uint256",
          "name": "minReputation",
          "type": "uint256"
        }
      ],
      "payable": false,
      "stateMutability": "view",
      "type": "function"
    },
    {
      "constant": true,
      "inputs": [
        {
          "internalType": "address",
          "name": "",
          "type": "address"
        }
      ],
      "name": "membres",
      "outputs": [
        {
          "internalType": "bool",
          "name": "",
          "type": "bool"
        }
      ],
      "payable": false,
      "stateMutability": "view",
      "type": "function"
    },
    {
      "constant": true,
      "inputs": [
        {
          "internalType": "address",
          "name": "",
          "type": "address"
        }
      ],
      "name": "names",
      "outputs": [
        {
          "internalType": "string",
          "name": "",
          "type": "string"
        }
      ],
      "payable": false,
      "stateMutability": "view",
      "type": "function"
    },
    {
      "constant": true,
      "inputs": [
        {
          "internalType": "address",
          "name": "",
          "type": "address"
        }
      ],
      "name": "reputation",
      "outputs": [
        {
          "internalType": "uint256",
          "name": "",
          "type": "uint256"
        }
      ],
      "payable": false,
      "stateMutability": "view",
      "type": "function"
    },
    {
      "constant": false,
      "inputs": [],
      "name": "kill",
      "outputs": [],
      "payable": false,
      "stateMutability": "nonpayable",
      "type": "function"
    },
    {
      "constant": false,
      "inputs": [
        {
          "internalType": "string",
          "name": "nume",
          "type": "string"
        }
      ],
      "name": "inscription",
      "outputs": [],
      "payable": false,
      "stateMutability": "nonpayable",
      "type": "function"
    },
    {
      "constant": true,
      "inputs": [
        {
          "internalType": "address",
          "name": "utilisateur",
          "type": "address"
        }
      ],
      "name": "getReputation",
      "outputs": [
        {
          "internalType": "uint256",
          "name": "",
          "type": "uint256"
        }
      ],
      "payable": false,
      "stateMutability": "view",
      "type": "function"
    },
    {
      "constant": true,
      "inputs": [
        {
          "internalType": "address",
          "name": "utilisateur",
          "type": "address"
        }
      ],
      "name": "estMembre",
      "outputs": [
        {
          "internalType": "bool",
          "name": "",
          "type": "bool"
        }
      ],
      "payable": false,
      "stateMutability": "view",
      "type": "function"
    },
    {
      "constant": false,
      "inputs": [
        {
          "internalType": "uint256",
          "name": "_remuneration",
          "type": "uint256"
        },
        {
          "internalType": "uint256",
          "name": "_delai",
          "type": "uint256"
        },
        {
          "internalType": "string",
          "name": "_description",
          "type": "string"
        },
        {
          "internalType": "uint256",
          "name": "_minReputation",
          "type": "uint256"
        }
      ],
      "name": "ajouterDemande",
      "outputs": [],
      "payable": true,
      "stateMutability": "payable",
      "type": "function"
    },
    {
      "constant": true,
      "inputs": [],
      "name": "getNumberOfDemande",
      "outputs": [
        {
          "internalType": "uint256",
          "name": "",
          "type": "uint256"
        }
      ],
      "payable": false,
      "stateMutability": "view",
      "type": "function"
    },
    {
      "constant": true,
      "inputs": [
        {
          "internalType": "uint256",
          "name": "_indice",
          "type": "uint256"
        }
      ],
      "name": "getNumberOfMyCandidats",
      "outputs": [
        {
          "internalType": "uint256",
          "name": "",
          "type": "uint256"
        }
      ],
      "payable": false,
      "stateMutability": "view",
      "type": "function"
    },
    {
      "constant": true,
      "inputs": [],
      "name": "getDemandesOuverte",
      "outputs": [
        {
          "internalType": "uint256[]",
          "name": "demandesOuverte",
          "type": "uint256[]"
        }
      ],
      "payable": false,
      "stateMutability": "view",
      "type": "function"
    },
    {
      "constant": true,
      "inputs": [],
      "name": "getMesDemandes",
      "outputs": [
        {
          "internalType": "uint256[]",
          "name": "Mesdemandes",
          "type": "uint256[]"
        }
      ],
      "payable": false,
      "stateMutability": "view",
      "type": "function"
    },
    {
      "constant": false,
      "inputs": [
        {
          "internalType": "uint256",
          "name": "_indice",
          "type": "uint256"
        }
      ],
      "name": "postuler",
      "outputs": [],
      "payable": false,
      "stateMutability": "nonpayable",
      "type": "function"
    },
    {
      "constant": false,
      "inputs": [
        {
          "internalType": "uint256",
          "name": "indDemande",
          "type": "uint256"
        },
        {
          "internalType": "uint256",
          "name": "indiceCandidat",
          "type": "uint256"
        },
        {
          "internalType": "address",
          "name": "_candidats",
          "type": "address"
        }
      ],
      "name": "accepterOffre",
      "outputs": [],
      "payable": false,
      "stateMutability": "nonpayable",
      "type": "function"
    },
    {
      "constant": false,
      "inputs": [
        {
          "internalType": "string",
          "name": "_url",
          "type": "string"
        },
        {
          "internalType": "uint256",
          "name": "_id",
          "type": "uint256"
        }
      ],
      "name": "livraison",
      "outputs": [],
      "payable": false,
      "stateMutability": "nonpayable",
      "type": "function"
    },
    {
      "constant": false,
      "inputs": [
        {
          "internalType": "uint256",
          "name": "_id",
          "type": "uint256"
        }
      ],
      "name": "fermerDemande",
      "outputs": [],
      "payable": false,
      "stateMutability": "nonpayable",
      "type": "function"
    },
    {
      "constant": false,
      "inputs": [
        {
          "internalType": "address",
          "name": "_membre",
          "type": "address"
        }
      ],
      "name": "sanctionne",
      "outputs": [],
      "payable": false,
      "stateMutability": "nonpayable",
      "type": "function"
    },
    {
      "constant": false,
      "inputs": [
        {
          "internalType": "uint256",
          "name": "indDemande",
          "type": "uint256"
        }
      ],
      "name": "estEnRetard",
      "outputs": [
        {
          "internalType": "bool",
          "name": "",
          "type": "bool"
        }
      ],
      "payable": false,
      "stateMutability": "nonpayable",
      "type": "function"
    },
    {
      "constant": false,
      "inputs": [
        {
          "internalType": "address",
          "name": "_membre",
          "type": "address"
        },
        {
          "internalType": "uint256",
          "name": "_satisfaction",
          "type": "uint256"
        }
      ],
      "name": "satisfaction",
      "outputs": [],
      "payable": false,
      "stateMutability": "nonpayable",
      "type": "function"
    },
    {
      "constant": false,
      "inputs": [
        {
          "internalType": "address payable",
          "name": "_illestrateur",
          "type": "address"
        },
        {
          "internalType": "uint256",
          "name": "_id",
          "type": "uint256"
        }
      ],
      "name": "transferToIllstrateur",
      "outputs": [],
      "payable": true,
      "stateMutability": "payable",
      "type": "function"
    },
    {
      "constant": true,
      "inputs": [
        {
          "internalType": "address",
          "name": "addr",
          "type": "address"
        }
      ],
      "name": "getmembresName",
      "outputs": [
        {
          "internalType": "string",
          "name": "nom",
          "type": "string"
        }
      ],
      "payable": false,
      "stateMutability": "view",
      "type": "function"
    },
    {
      "constant": true,
      "inputs": [],
      "name": "getAdminAdress",
      "outputs": [
        {
          "internalType": "address",
          "name": "addre",
          "type": "address"
        }
      ],
      "payable": false,
      "stateMutability": "view",
      "type": "function"
    },
    {
      "constant": true,
      "inputs": [
        {
          "internalType": "uint256",
          "name": "_id",
          "type": "uint256"
        },
        {
          "internalType": "address",
          "name": "_illustrateur",
          "type": "address"
        }
      ],
      "name": "getDelyTopay",
      "outputs": [
        {
          "internalType": "uint256",
          "name": "tmp",
          "type": "uint256"
        }
      ],
      "payable": false,
      "stateMutability": "view",
      "type": "function"
    }
  ],
  "bytecode": "0x60806040523480156200001157600080fd5b5060008054336001600160a01b031991821617808355600d80546001600160a01b03928316931683179055908252600160208181526040808520805460ff191690931790925581518083018352600e81527f41646d696e69737472617465757200000000000000000000000000000000000081830190815285549094168552600390915292209151620000a6929190620000ad565b5062000152565b828054600181600116156101000203166002900490600052602060002090601f016020900481019282601f10620000f057805160ff191683800117855562000120565b8280016001018555821562000120579182015b828111156200012057825182559160200191906001019062000103565b506200012e92915062000132565b5090565b6200014f91905b808211156200012e576000815560010162000139565b90565b6119e580620001626000396000f3fe6080604052600436106101815760003560e01c80637de14242116100d1578063b5e2bf2f1161008a578063cf73cb1f11610064578063cf73cb1f14610836578063d30a95a61461084b578063df15d8fc14610900578063fb9495891461093357610181565b8063b5e2bf2f1461064a578063b9f794511461074f578063cbfad3501461078257610181565b80637de14242146105105780639c89a0e214610540578063a03b913f14610573578063a057eefe146105a6578063b0a3734a146105ed578063b4ae9f3d1461062057610181565b80633efcdf4a1161013e57806345ea43b01161011857806345ea43b0146103ea5780635cf3d3461461041457806365a71b17146104bc57806373306288146104e657610181565b80633efcdf4a146102f657806341c0e1b5146103225780634476cf591461033757610181565b80630511bd22146101865780630bf89472146101c157806311ca6acb1461020057806313bcd11e1461024b578063375f7dcb146102605780633ef7fec7146102c5575b600080fd5b34801561019257600080fd5b506101bf600480360360408110156101a957600080fd5b506001600160a01b03813516906020013561095d565b005b3480156101cd57600080fd5b506101bf600480360360608110156101e457600080fd5b50803590602081013590604001356001600160a01b031661097f565b34801561020c57600080fd5b506102396004803603604081101561022357600080fd5b50803590602001356001600160a01b0316610a6f565b60408051918252519081900360200190f35b34801561025757600080fd5b50610239610a97565b34801561026c57600080fd5b50610275610a9e565b60408051602080825283518183015283519192839290830191858101910280838360005b838110156102b1578181015183820152602001610299565b505050509050019250505060405180910390f35b3480156102d157600080fd5b506102da610bad565b604080516001600160a01b039092168252519081900360200190f35b6101bf6004803603604081101561030c57600080fd5b506001600160a01b038135169060200135610bbc565b34801561032e57600080fd5b506101bf610d37565b34801561034357600080fd5b506101bf6004803603602081101561035a57600080fd5b81019060208101813564010000000081111561037557600080fd5b82018360208201111561038757600080fd5b803590602001918460018302840111640100000000831117156103a957600080fd5b91908080601f016020809104026020016040519081016040528093929190818152602001838380828437600092019190915250929550610d5c945050505050565b3480156103f657600080fd5b506101bf6004803603602081101561040d57600080fd5b5035610e03565b34801561042057600080fd5b506104476004803603602081101561043757600080fd5b50356001600160a01b0316611084565b6040805160208082528351818301528351919283929083019185019080838360005b83811015610481578181015183820152602001610469565b50505050905090810190601f1680156104ae5780820380516001836020036101000a031916815260200191505b509250505060405180910390f35b3480156104c857600080fd5b50610239600480360360208110156104df57600080fd5b503561111f565b3480156104f257600080fd5b506101bf6004803603602081101561050957600080fd5b5035611134565b34801561051c57600080fd5b506102da6004803603604081101561053357600080fd5b5080359060200135611178565b34801561054c57600080fd5b506102396004803603602081101561056357600080fd5b50356001600160a01b031661119e565b34801561057f57600080fd5b506101bf6004803603602081101561059657600080fd5b50356001600160a01b03166111b9565b3480156105b257600080fd5b506105d9600480360360208110156105c957600080fd5b50356001600160a01b031661127c565b604080519115158252519081900360200190f35b3480156105f957600080fd5b506105d96004803603602081101561061057600080fd5b50356001600160a01b0316611291565b34801561062c57600080fd5b506105d96004803603602081101561064357600080fd5b50356112c2565b34801561065657600080fd5b506106746004803603602081101561066d57600080fd5b5035611383565b60405180898152602001886001600160a01b03166001600160a01b03168152602001876001600160a01b03166001600160a01b03168152602001868152602001858152602001806020018460028111156106ca57fe5b60ff168152602001838152602001828103825285818151815260200191508051906020019080838360005b8381101561070d5781810151838201526020016106f5565b50505050905090810190601f16801561073a5780820380516001836020036101000a031916815260200191505b50995050505050505050505060405180910390f35b34801561075b57600080fd5b506102396004803603602081101561077257600080fd5b50356001600160a01b0316611460565b6101bf6004803603608081101561079857600080fd5b8135916020810135918101906060810160408201356401000000008111156107bf57600080fd5b8201836020820111156107d157600080fd5b803590602001918460018302840111640100000000831117156107f357600080fd5b91908080601f0160208091040260200160405190810160405280939291908181526020018383808284376000920191909152509295505091359250611472915050565b34801561084257600080fd5b506102756116ad565b34801561085757600080fd5b506101bf6004803603604081101561086e57600080fd5b81019060208101813564010000000081111561088957600080fd5b82018360208201111561089b57600080fd5b803590602001918460018302840111640100000000831117156108bd57600080fd5b91908080601f01602080910402602001604051908101604052809392919081815260200183838082843760009201919091525092955050913592506117b2915050565b34801561090c57600080fd5b506104476004803603602081101561092357600080fd5b50356001600160a01b03166117fd565b34801561093f57600080fd5b506102396004803603602081101561095657600080fd5b50356118a8565b6001600160a01b03909116600090815260026020526040902080549091019055565b6000838152600560205260409020600101546001600160a01b031633146109a557600080fd5b60008381526005602052604081206006015460ff1660028111156109c557fe5b146109cf57600080fd5b60008381526006602090815260408083208584529091529020546001600160a01b03828116911614610a0057600080fd5b60009283526005602090815260408085206004810154600c845282872042909101905560068101805460ff191660011790556002810180546001600160a01b0319166001600160a01b039590951694851790556003015460088352818620938652929091529092209190915550565b6000918252600a602090815260408084206001600160a01b0393909316845291905290205490565b6009545b90565b606080600954604051908082528060200260200182016040528015610acd578160200160208202803883390190505b509050600060015b6009548111610b3b5760008181526005602052604081206006015460ff166002811115610afe57fe5b1415610b33576000818152600560205260409020548351849084908110610b2157fe5b60209081029190910101526001909101905b600101610ad5565b5080604051908082528060200260200182016040528015610b66578160200160208202803883390190505b50925060005b81811015610ba757828181518110610b8057fe5b6020026020010151848281518110610b9457fe5b6020908102919091010152600101610b6c565b50505090565b6000546001600160a01b031690565b6000546001600160a01b03163314610bd357600080fd5b6000818152600b602052604090205460ff1615610bef57600080fd5b6000818152600560205260409020600201546001600160a01b03838116911614610c1857600080fd5b600260008281526005602052604090206006015460ff166002811115610c3a57fe5b1480610c6857506000818152600a602090815260408083206001600160a01b03861684529091529020544210155b610c7157600080fd5b600081815260056020908152604080832060030154600883528184206001600160a01b0387168552909252909120548114610cab57600080fd5b6040516001600160a01b0384169082156108fc029083906000818181858888f19350505050158015610ce1573d6000803e3d6000fd5b50506000818152600560209081526040808320600601805460ff19908116600217909155600883528184206001600160a01b03969096168452948252808320839055928252600b90522080549091166001179055565b6000546001600160a01b03163314610d4e57600080fd5b6000546001600160a01b0316ff5b610d6533611291565b15610db7576040805162461bcd60e51b815260206004820152601760248201527f766f757320657465732064656a6120696e736372697421000000000000000000604482015290519081900360640190fd5b33600090815260026020908152604080832060019055600382529091208251610de2928401906118ba565b5050336000908152600160208190526040909120805460ff19169091179055565b600060095411610e1257600080fd5b600081118015610e2457506009548111155b610e2d57600080fd5b600081815260056020526040812090600682015460ff166002811115610e4f57fe5b14610e5957600080fd5b60018101546001600160a01b0316331415610e7357600080fd5b610e7c33611291565b610ec6576040805162461bcd60e51b8152602060048201526016602482015275766575696c6c657a20766f757320696e73637269726560501b604482015290519081900360640190fd5b6007810154336000908152600260205260409020541015610f185760405162461bcd60e51b815260040180806020018281038252603281526020018061197f6032913960400191505060405180910390fd5b600082815260076020908152604080832080546001908101918290556006845282852082865284528285208054336001600160a01b0319918216811790925587830154828852600e80885286892080546001600160a01b0390931692909316919091178255855180880196879052888152929097529590945292519093610fa1930191906118ba565b506001828101543360008181526003602081815260409283902091880154835191820181905283825282546002610100988216159890980260001901169690960492810183905292946001600160a01b039094169388937fae2647c8562dd1f0dcd0fda6fde9778c8c032274b43e5d1236825ec52569f3869381906060820190859080156110705780601f1061104557610100808354040283529160200191611070565b820191906000526020600020905b81548152906001019060200180831161105357829003601f168201915b5050935050505060405180910390a4505050565b60036020908152600091825260409182902080548351601f6002600019610100600186161502019093169290920491820184900484028101840190945280845290918301828280156111175780601f106110ec57610100808354040283529160200191611117565b820191906000526020600020905b8154815290600101906020018083116110fa57829003601f168201915b505050505081565b6000818152600760205260409020545b919050565b6000818152600560205260409020600101546001600160a01b0316331461115a57600080fd5b6000908152600560205260409020600601805460ff19166002179055565b60066020908152600092835260408084209091529082529020546001600160a01b031681565b6001600160a01b031660009081526002602052604090205490565b6111c281611291565b6111fd5760405162461bcd60e51b815260040180806020018281038252602c815260200180611953602c913960400191505060405180910390fd5b6000546001600160a01b0316331415611238576001600160a01b0381166000908152600460205260409020805460ff19166001179055611279565b6001600160a01b038116600090815260026020526040902054611279576001600160a01b0381166000908152600460205260409020805460ff191660011790555b50565b60016020526000908152604090205460ff1681565b6001600160a01b03811660009081526001602052604081205460ff16156112ba5750600161112f565b50600061112f565b6000818152600560205260408120600101546001600160a01b031633146112e857600080fd5b60008281526005602052604090206002015461130c906001600160a01b0316611291565b61131557600080fd5b600082815260056020908152604080832060020154600c909252909120546001600160a01b0390911690421015611379576001600160a01b0381166000908152600260205260409020805460001901905561136f816111b9565b600191505061112f565b600091505061112f565b60056020818152600092835260409283902080546001808301546002808501546003860154600487015498870180548b516101009782161597909702600019011693909304601f8101899004890286018901909a5289855294986001600160a01b03938416989390911696949592949293928301828280156114465780601f1061141b57610100808354040283529160200191611446565b820191906000526020600020905b81548152906001019060200180831161142957829003601f168201915b505050506006830154600790930154919260ff1691905088565b60026020526000908152604090205481565b61147b33611291565b61148457600080fd5b3360009081526004602052604090205460ff16156114a157600080fd5b606460668502043481146114b457600080fd5b600d546040516000916001600160a01b03169083156108fc0290849084818181858888f193505050501580156114ee573d6000803e3d6000fd5b506009805460019081019182905560408051610100810182528381523360208281019182526001600160a01b03878116848601908152606085018e8152608086018e815260a087018e8152600060c0890181905260e089018f90529a8b52600580875298909a2087518155955198860180549985166001600160a01b03199a8b161790559151600286018054919094169816979097179091559451600383015593516004820155935180519194936115ab938501929101906118ba565b5060c082015160068201805460ff191660018360028111156115c957fe5b021790555060e091909101516007909101556009543360008181526003602090815260409182902082519182018b90528282528054600260001961010060018416150201909116049282018390529293927fb64b67567ddff518d391fc669bf340a6614d524c62b16548fd387347323513f89290918b9181906060820190859080156116965780601f1061166b57610100808354040283529160200191611696565b820191906000526020600020905b81548152906001019060200180831161167957829003601f168201915b5050935050505060405180910390a3505050505050565b6060806009546040519080825280602002602001820160405280156116dc578160200160208202803883390190505b509050600060015b6009548111611746576000818152600560205260409020600101546001600160a01b031633141561173e57600081815260056020526040902054835184908490811061172c57fe5b60209081029190910101526001909101905b6001016116e4565b5080604051908082528060200260200182016040528015611771578160200160208202803883390190505b50925060005b81811015610ba75782818151811061178b57fe5b602002602001015184828151811061179f57fe5b6020908102919091010152600101611777565b336000908152600e6020908152604090912083516117d8926001909201918501906118ba565b506000908152600a60209081526040808320338452909152902062093a804201905550565b6001600160a01b03811660009081526003602090815260409182902080548351601f600260001961010060018616150201909316929092049182018490048402810184019094528084526060939283018282801561189c5780601f106118715761010080835404028352916020019161189c565b820191906000526020600020905b81548152906001019060200180831161187f57829003601f168201915b50939695505050505050565b600c6020526000908152604090205481565b828054600181600116156101000203166002900490600052602060002090601f016020900481019282601f106118fb57805160ff1916838001178555611928565b82800160010185558215611928579182015b8281111561192857825182559160200191906001019061190d565b50611934929150611938565b5090565b610a9b91905b80821115611934576000815560010161193e56fe63657474652041646472657373206e20657374207061732064616e73206c61206261736520646520646f6e6572657075746174696f6e20696e737566666973616e746520706f757220616363656465722061206365747465206f66667265a265627a7a723158202b79b8f4d5f449e8f15da70e7a5b9d22fbfeb652035ec8a490cd354fb0db999564736f6c634300050c0032",
  "source": "pragma solidity ^0.5.11;\n//pragma experimental ABIEncoderV2;\n\nimport \"./Ownable.sol\";\n\n\n\n\n\ncontract PlaceDeMarche is Ownable {\n\n  enum Etat {OUVERTE,ENCOURS,FERMEE}\n  mapping (address => bool) public membres;\n  mapping(address => uint256) public reputation;\n  mapping(address => string) public  names;\n  mapping (address => bool) private addressBannies; // address bannies true adress bannies false\n  mapping (uint => Demande) public demandes;\n  mapping (uint =>mapping(uint => address))public candidates;\n  mapping(uint =>uint) CandidatsCounter;\n  mapping(uint =>mapping(address=> uint256)) private _balance;\n  uint demandeCounter;\n mapping(uint => mapping(address =>uint)) private delytopay;\n mapping(uint => bool) private dejaPaye;\n mapping(uint => uint) public dataLimte;\n\n  address payable private wallet;\n  mapping (address => Link) private links;\n\n\n  struct Demande {\n    uint id;\n    address entreprise;\n    address illustrateur;\n    uint256 remuneration;\n    uint256 delai;\n    string description;\n    Etat etatDemande;\n    uint256 minReputation;\n\n }\n struct Link {\n  address entreprise;\n  string url;\n }\n\n event LogAjouterDemande(\n   uint indexed _id,\n   address indexed _entreprise,\n   string _name,\n   uint256 _remuneration\n );\n event LogPostuler(\n   uint indexed _id,\n   address indexed _entreprise,\n   address indexed _illustrateur,\n   string _name,\n   uint256 _remuneration\n );\n\n // deactivate the contract\n function kill() public onlyOwner {\n   selfdestruct(admin);\n }\n\n     constructor() public {\n\n         wallet = admin;\n         membres[admin]=true;\n         names[admin]= \"Administrateur\";\n\n    }\n\nfunction inscription(string memory nume) public  {\n    require(!estMembre(msg.sender),\"vous etes deja inscrit!\");\n     reputation[msg.sender] = 1;\n     names[msg.sender]= nume;\n     membres[msg.sender]=true;\n }\n\n function getReputation (address utilisateur ) public view returns(uint){\n   return reputation[utilisateur];\n }\n\n function estMembre(address utilisateur) public view returns (bool) {\n\n            if (membres[utilisateur]) {\n                return true;\n            }else{\n\n        return false;\n            }\n    }\n\n    function ajouterDemande( uint256  _remuneration,uint256  _delai,string memory _description,uint256 _minReputation) public payable {\n        require(estMembre(msg.sender));\n        require(!addressBannies[msg.sender]);\n        uint256 amount = _remuneration*102/100;\n        require(msg.value == amount);\n        address illustrateur;\n        wallet.transfer(amount);\n        demandeCounter++;\n        CandidatsCounter[demandeCounter];\n        demandes[demandeCounter] = Demande(\n          demandeCounter,\n          msg.sender,\n         illustrateur,\n          _remuneration,\n          _delai,\n          _description,\n          Etat.OUVERTE,\n          _minReputation\n\n          );\n\n          emit LogAjouterDemande(\n            demandeCounter,\n            msg.sender,\n            names[msg.sender],\n            _remuneration\n          );\n    }\n\n    function getNumberOfDemande() public view returns (uint) {\n      return demandeCounter;\n    }\n    function getNumberOfMyCandidats(uint _indice) public view returns (uint) {\n      return CandidatsCounter[_indice];\n    }\n\n    function getDemandesOuverte() public view returns ( uint[] memory demandesOuverte) {\n      // prepare output array\n      uint[] memory demandeIds = new  uint[](demandeCounter);\n\n      uint numberOfDemandesOuverte = 0;\n      // iterate over articles\n      for(uint i = 1; i <= demandeCounter;  i++) {\n        // keep the ID if the article is still for sale\n        if(demandes[i].etatDemande == Etat.OUVERTE) {\n          demandeIds[numberOfDemandesOuverte] = demandes[i].id;\n          numberOfDemandesOuverte++;\n        }\n      }\n\n      // copy the articleIds array into a smaller forSale array\n      demandesOuverte = new uint[](numberOfDemandesOuverte);\n      for(uint j = 0; j < numberOfDemandesOuverte; j++) {\n        demandesOuverte[j] = demandeIds[j];\n      }\n      return demandesOuverte;\n    }\n    function getMesDemandes() public view returns ( uint[] memory Mesdemandes) {\n      // prepare output array\n      uint[] memory demandeIds = new  uint[](demandeCounter);\n\n      uint numberOfMesdemandes = 0;\n      // iterate over articles\n      for(uint i = 1; i <= demandeCounter;  i++) {\n        // keep the ID if the article is still for sale\n        if(demandes[i].entreprise == msg.sender) {\n          demandeIds[numberOfMesdemandes] = demandes[i].id;\n          numberOfMesdemandes++;\n        }\n      }\n\n      // copy the articleIds array into a smaller forSale array\n      Mesdemandes = new uint[](numberOfMesdemandes);\n      for(uint j = 0; j < numberOfMesdemandes; j++) {\n        Mesdemandes[j] = demandeIds[j];\n      }\n      return Mesdemandes;\n    }\n\n\n    function postuler(uint _indice) public {\n        //permet  un indpendant de proposer ses services. Il est alors ajout  la liste des candidats\n        require(demandeCounter > 0);\n\n        // we check that the article exists\n        require(_indice > 0 && _indice <= demandeCounter);\n\n        // we retrieve the article\n        Demande storage demende = demandes[_indice];\n\n        // we check that the article has not been sold yet\n        require(demende.etatDemande == Etat.OUVERTE);\n\n        // we don't allow the seller to buy his own article\n        require(msg.sender != demende.entreprise);\n        require(estMembre(msg.sender),\"veuillez vous inscrire\");\n        require(reputation[msg.sender]>= demende.minReputation, \"reputation insuffisante pour acceder a cette offre\");\n        uint plusUn = CandidatsCounter[_indice] +1;\n        CandidatsCounter[_indice] =plusUn;\n        candidates[_indice][CandidatsCounter[_indice]]= msg.sender;\n        links[msg.sender].entreprise = demende.entreprise;\n        links[msg.sender].url = \"\";\n        emit LogPostuler(\n          _indice,\n          demende.entreprise,\n          msg.sender,\n          names[msg.sender],\n          demende.remuneration\n        );\n\n    }\n\n    function accepterOffre(uint indDemande,uint indiceCandidat, address _candidats) public {\n        //permet  lentreprise daccepter un illustrateur. La demande est alors ENCOURS jusqu sa remise\n        require(demandes[indDemande].entreprise == msg.sender);\n        require(demandes[indDemande].etatDemande == Etat.OUVERTE);\n        require(candidates[indDemande][indiceCandidat]== _candidats);\n        dataLimte[indDemande]= demandes[indDemande].delai+ now;\n        demandes[indDemande].etatDemande = Etat.ENCOURS;\n        demandes[indDemande].illustrateur = _candidats;\n        _balance[indDemande][_candidats] =demandes[indDemande].remuneration;\n\n\n    }\n\n     function livraison(string memory _url,uint _id) public {\n         links[msg.sender].url = _url;\n         delytopay[_id][msg.sender] = now + 604800;\n\n     }\n\n     function fermerDemande(uint _id) public {\n         require(demandes[_id].entreprise == msg.sender);\n         demandes[_id].etatDemande = Etat.FERMEE;\n     }\n\n     function sanctionne(address _membre) public {\n       require(estMembre(_membre),\"cette Address n est pas dans la base de done\");\n         if(msg.sender == admin){\n\n             addressBannies[_membre] = true;\n         }else{\n             if(reputation[_membre]== 0){\n                 addressBannies[_membre] = true;\n             }\n         }\n\n     }\n\n     function estEnRetard(uint indDemande) public  returns (bool){\n         require(demandes[indDemande].entreprise == msg.sender);\n         require(estMembre(demandes[indDemande].illustrateur));\n      address _candidats = demandes[indDemande].illustrateur;\n         if(dataLimte[indDemande]>now){\n             reputation[_candidats] = reputation[_candidats] -1;\n             sanctionne(_candidats);\n             return true;\n         }else{\n             return false;\n\n         }\n\n     }\n     function satisfaction(address _membre,uint256 _satisfaction) public {\n\n         reputation[_membre] = reputation[_membre] + _satisfaction;\n     }\n\n     function transferToIllstrateur(address payable _illestrateur,uint _id) public payable {\n         require(msg.sender == admin);\n         require(!dejaPaye[_id]);\n         require(demandes[_id].illustrateur == _illestrateur);\n         require( demandes[_id].etatDemande == Etat.FERMEE || delytopay[_id][_illestrateur]<= now);\n         uint256 amount = demandes[_id].remuneration;\n         require(amount == _balance[_id][_illestrateur]);\n         _illestrateur.transfer(amount);\n         demandes[_id].etatDemande = Etat.FERMEE;\n         _balance[_id][_illestrateur]=0;\n         dejaPaye[_id]=true;\n\n     }\n\n     function getmembresName(address addr) public view returns (string memory nom){\n        nom = names[addr];\n       return nom;\n     }\n    function getAdminAdress() public view returns (address  addre){\n      addre = admin;\n      return addre;\n    }\n    function getDelyTopay(uint _id,address _illustrateur) public view returns (uint tmp){\n     tmp = delytopay[_id][_illustrateur];\n     return tmp;\n    }\n\n}\n",
  "sourcePath": "/home/ingmedical16/exercices/AlyraSchool/HomeWork/Semaine4/v6defi2/contracts/PlaceDeMarche.sol",
  "compiler": {
    "name": "solc",
    "version": "0.5.12+commit.7709ece9.Emscripten.clang"
  },
  "schemaVersion": "3.0.19",
  "updatedAt": "2019-11-24T17:31:50.850Z",
  "networkType": "ethereum",
  "devdoc": {
    "methods": {}
  },
  "userdoc": {
    "methods": {}
  }
}