{
  "contractName": "PlaceDeMarche",
  "abi": [
    {
      "inputs": [],
      "payable": false,
      "stateMutability": "nonpayable",
      "type": "constructor"
    },
    {
      "anonymous": false,
      "inputs": [
        {
          "indexed": true,
          "internalType": "uint256",
          "name": "_id",
          "type": "uint256"
        },
        {
          "indexed": true,
          "internalType": "address",
          "name": "_entreprise",
          "type": "address"
        },
        {
          "indexed": false,
          "internalType": "string",
          "name": "_name",
          "type": "string"
        },
        {
          "indexed": false,
          "internalType": "uint256",
          "name": "_remuneration",
          "type": "uint256"
        }
      ],
      "name": "LogAjouterDemande",
      "type": "event"
    },
    {
      "anonymous": false,
      "inputs": [
        {
          "indexed": true,
          "internalType": "uint256",
          "name": "_id",
          "type": "uint256"
        },
        {
          "indexed": true,
          "internalType": "address",
          "name": "_entreprise",
          "type": "address"
        },
        {
          "indexed": true,
          "internalType": "address",
          "name": "_illustrateur",
          "type": "address"
        },
        {
          "indexed": false,
          "internalType": "string",
          "name": "_name",
          "type": "string"
        },
        {
          "indexed": false,
          "internalType": "uint256",
          "name": "_remuneration",
          "type": "uint256"
        }
      ],
      "name": "LogPostuler",
      "type": "event"
    },
    {
      "constant": true,
      "inputs": [
        {
          "internalType": "uint256",
          "name": "",
          "type": "uint256"
        },
        {
          "internalType": "uint256",
          "name": "",
          "type": "uint256"
        }
      ],
      "name": "candidates",
      "outputs": [
        {
          "internalType": "address",
          "name": "",
          "type": "address"
        }
      ],
      "payable": false,
      "stateMutability": "view",
      "type": "function"
    },
    {
      "constant": true,
      "inputs": [
        {
          "internalType": "uint256",
          "name": "",
          "type": "uint256"
        }
      ],
      "name": "dataLimte",
      "outputs": [
        {
          "internalType": "uint256",
          "name": "",
          "type": "uint256"
        }
      ],
      "payable": false,
      "stateMutability": "view",
      "type": "function"
    },
    {
      "constant": true,
      "inputs": [
        {
          "internalType": "uint256",
          "name": "",
          "type": "uint256"
        }
      ],
      "name": "demandes",
      "outputs": [
        {
          "internalType": "uint256",
          "name": "id",
          "type": "uint256"
        },
        {
          "internalType": "address",
          "name": "entreprise",
          "type": "address"
        },
        {
          "internalType": "address",
          "name": "illustrateur",
          "type": "address"
        },
        {
          "internalType": "uint256",
          "name": "remuneration",
          "type": "uint256"
        },
        {
          "internalType": "uint256",
          "name": "delai",
          "type": "uint256"
        },
        {
          "internalType": "string",
          "name": "description",
          "type": "string"
        },
        {
          "internalType": "enum PlaceDeMarche.Etat",
          "name": "etatDemande",
          "type": "uint8"
        },
        {
          "internalType": "uint256",
          "name": "minReputation",
          "type": "uint256"
        }
      ],
      "payable": false,
      "stateMutability": "view",
      "type": "function"
    },
    {
      "constant": true,
      "inputs": [
        {
          "internalType": "address",
          "name": "",
          "type": "address"
        }
      ],
      "name": "membres",
      "outputs": [
        {
          "internalType": "bool",
          "name": "",
          "type": "bool"
        }
      ],
      "payable": false,
      "stateMutability": "view",
      "type": "function"
    },
    {
      "constant": true,
      "inputs": [
        {
          "internalType": "address",
          "name": "",
          "type": "address"
        }
      ],
      "name": "names",
      "outputs": [
        {
          "internalType": "string",
          "name": "",
          "type": "string"
        }
      ],
      "payable": false,
      "stateMutability": "view",
      "type": "function"
    },
    {
      "constant": true,
      "inputs": [
        {
          "internalType": "address",
          "name": "",
          "type": "address"
        }
      ],
      "name": "reputation",
      "outputs": [
        {
          "internalType": "uint256",
          "name": "",
          "type": "uint256"
        }
      ],
      "payable": false,
      "stateMutability": "view",
      "type": "function"
    },
    {
      "constant": false,
      "inputs": [],
      "name": "kill",
      "outputs": [],
      "payable": false,
      "stateMutability": "nonpayable",
      "type": "function"
    },
    {
      "constant": false,
      "inputs": [
        {
          "internalType": "string",
          "name": "nume",
          "type": "string"
        }
      ],
      "name": "inscription",
      "outputs": [],
      "payable": false,
      "stateMutability": "nonpayable",
      "type": "function"
    },
    {
      "constant": true,
      "inputs": [
        {
          "internalType": "address",
          "name": "utilisateur",
          "type": "address"
        }
      ],
      "name": "estMembre",
      "outputs": [
        {
          "internalType": "bool",
          "name": "",
          "type": "bool"
        }
      ],
      "payable": false,
      "stateMutability": "view",
      "type": "function"
    },
    {
      "constant": false,
      "inputs": [
        {
          "internalType": "uint256",
          "name": "_remuneration",
          "type": "uint256"
        },
        {
          "internalType": "uint256",
          "name": "_delai",
          "type": "uint256"
        },
        {
          "internalType": "string",
          "name": "_description",
          "type": "string"
        },
        {
          "internalType": "uint256",
          "name": "_minReputation",
          "type": "uint256"
        }
      ],
      "name": "ajouterDemande",
      "outputs": [],
      "payable": true,
      "stateMutability": "payable",
      "type": "function"
    },
    {
      "constant": true,
      "inputs": [],
      "name": "getNumberOfDemande",
      "outputs": [
        {
          "internalType": "uint256",
          "name": "",
          "type": "uint256"
        }
      ],
      "payable": false,
      "stateMutability": "view",
      "type": "function"
    },
    {
      "constant": true,
      "inputs": [
        {
          "internalType": "uint256",
          "name": "_indice",
          "type": "uint256"
        }
      ],
      "name": "getNumberOfMyCandidats",
      "outputs": [
        {
          "internalType": "uint256",
          "name": "",
          "type": "uint256"
        }
      ],
      "payable": false,
      "stateMutability": "view",
      "type": "function"
    },
    {
      "constant": true,
      "inputs": [],
      "name": "getDemandesOuverte",
      "outputs": [
        {
          "internalType": "uint256[]",
          "name": "demandesOuverte",
          "type": "uint256[]"
        }
      ],
      "payable": false,
      "stateMutability": "view",
      "type": "function"
    },
    {
      "constant": true,
      "inputs": [],
      "name": "getMesDemandes",
      "outputs": [
        {
          "internalType": "uint256[]",
          "name": "Mesdemandes",
          "type": "uint256[]"
        }
      ],
      "payable": false,
      "stateMutability": "view",
      "type": "function"
    },
    {
      "constant": false,
      "inputs": [
        {
          "internalType": "uint256",
          "name": "_indice",
          "type": "uint256"
        }
      ],
      "name": "postuler",
      "outputs": [],
      "payable": false,
      "stateMutability": "nonpayable",
      "type": "function"
    },
    {
      "constant": false,
      "inputs": [
        {
          "internalType": "uint256",
          "name": "indDemande",
          "type": "uint256"
        },
        {
          "internalType": "uint256",
          "name": "indiceCandidat",
          "type": "uint256"
        },
        {
          "internalType": "address",
          "name": "_candidats",
          "type": "address"
        }
      ],
      "name": "accepterOffre",
      "outputs": [],
      "payable": false,
      "stateMutability": "nonpayable",
      "type": "function"
    },
    {
      "constant": false,
      "inputs": [
        {
          "internalType": "string",
          "name": "_url",
          "type": "string"
        },
        {
          "internalType": "uint256",
          "name": "_id",
          "type": "uint256"
        }
      ],
      "name": "livraison",
      "outputs": [],
      "payable": false,
      "stateMutability": "nonpayable",
      "type": "function"
    },
    {
      "constant": false,
      "inputs": [
        {
          "internalType": "uint256",
          "name": "_id",
          "type": "uint256"
        }
      ],
      "name": "fermerDemande",
      "outputs": [],
      "payable": false,
      "stateMutability": "nonpayable",
      "type": "function"
    },
    {
      "constant": false,
      "inputs": [
        {
          "internalType": "address",
          "name": "_membre",
          "type": "address"
        }
      ],
      "name": "sanctionne",
      "outputs": [],
      "payable": false,
      "stateMutability": "nonpayable",
      "type": "function"
    },
    {
      "constant": false,
      "inputs": [
        {
          "internalType": "uint256",
          "name": "indDemande",
          "type": "uint256"
        }
      ],
      "name": "estEnRetard",
      "outputs": [
        {
          "internalType": "bool",
          "name": "",
          "type": "bool"
        }
      ],
      "payable": false,
      "stateMutability": "nonpayable",
      "type": "function"
    },
    {
      "constant": false,
      "inputs": [
        {
          "internalType": "address",
          "name": "_membre",
          "type": "address"
        },
        {
          "internalType": "uint256",
          "name": "_satisfaction",
          "type": "uint256"
        }
      ],
      "name": "satisfaction",
      "outputs": [],
      "payable": false,
      "stateMutability": "nonpayable",
      "type": "function"
    },
    {
      "constant": false,
      "inputs": [
        {
          "internalType": "address payable",
          "name": "_illestrateur",
          "type": "address"
        },
        {
          "internalType": "uint256",
          "name": "_id",
          "type": "uint256"
        }
      ],
      "name": "transferToIllstrateur",
      "outputs": [],
      "payable": false,
      "stateMutability": "nonpayable",
      "type": "function"
    },
    {
      "constant": true,
      "inputs": [
        {
          "internalType": "address",
          "name": "addr",
          "type": "address"
        }
      ],
      "name": "getmembresName",
      "outputs": [
        {
          "internalType": "string",
          "name": "nom",
          "type": "string"
        }
      ],
      "payable": false,
      "stateMutability": "view",
      "type": "function"
    },
    {
      "constant": true,
      "inputs": [],
      "name": "getAdminAdress",
      "outputs": [
        {
          "internalType": "address",
          "name": "addre",
          "type": "address"
        }
      ],
      "payable": false,
      "stateMutability": "view",
      "type": "function"
    },
    {
      "constant": true,
      "inputs": [
        {
          "internalType": "uint256",
          "name": "_id",
          "type": "uint256"
        },
        {
          "internalType": "address",
          "name": "_illustrateur",
          "type": "address"
        }
      ],
      "name": "getDelyTopay",
      "outputs": [
        {
          "internalType": "uint256",
          "name": "tmp",
          "type": "uint256"
        }
      ],
      "payable": false,
      "stateMutability": "view",
      "type": "function"
    }
  ],
  "bytecode": "0x60806040523480156200001157600080fd5b50336000806101000a81548173ffffffffffffffffffffffffffffffffffffffff021916908373ffffffffffffffffffffffffffffffffffffffff1602179055506000809054906101000a900473ffffffffffffffffffffffffffffffffffffffff16600d60006101000a81548173ffffffffffffffffffffffffffffffffffffffff021916908373ffffffffffffffffffffffffffffffffffffffff16021790555060018060008060009054906101000a900473ffffffffffffffffffffffffffffffffffffffff1673ffffffffffffffffffffffffffffffffffffffff1673ffffffffffffffffffffffffffffffffffffffff16815260200190815260200160002060006101000a81548160ff0219169083151502179055506040518060400160405280600e81526020017f41646d696e697374726174657572000000000000000000000000000000000000815250600360008060009054906101000a900473ffffffffffffffffffffffffffffffffffffffff1673ffffffffffffffffffffffffffffffffffffffff1673ffffffffffffffffffffffffffffffffffffffff1681526020019081526020016000209080519060200190620001d7929190620001de565b506200028d565b828054600181600116156101000203166002900490600052602060002090601f016020900481019282601f106200022157805160ff191683800117855562000252565b8280016001018555821562000252579182015b828111156200025157825182559160200191906001019062000234565b5b50905062000261919062000265565b5090565b6200028a91905b80821115620002865760008160009055506001016200026c565b5090565b90565b612b7e806200029d6000396000f3fe6080604052600436106101665760003560e01c806373306288116100d1578063b5e2bf2f1161008a578063cf73cb1f11610064578063cf73cb1f14610ad5578063d30a95a614610b41578063df15d8fc14610c13578063fb94958914610cdd57610166565b8063b5e2bf2f1461084c578063b9f7945114610997578063cbfad350146109fc57610166565b806373306288146106165780637de1424214610651578063a03b913f146106d6578063a057eefe14610727578063b0a3734a14610790578063b4ae9f3d146107f957610166565b80633efcdf4a116101235780633efcdf4a1461038857806341c0e1b5146103e35780634476cf59146103fa57806345ea43b0146104c25780635cf3d346146104fd57806365a71b17146105c757610166565b80630511bd221461016b5780630bf89472146101c657806311ca6acb1461022b57806313bcd11e1461029a578063375f7dcb146102c55780633ef7fec714610331575b600080fd5b34801561017757600080fd5b506101c46004803603604081101561018e57600080fd5b81019080803573ffffffffffffffffffffffffffffffffffffffff16906020019092919080359060200190929190505050610d2c565b005b3480156101d257600080fd5b50610229600480360360608110156101e957600080fd5b810190808035906020019092919080359060200190929190803573ffffffffffffffffffffffffffffffffffffffff169060200190929190505050610db5565b005b34801561023757600080fd5b506102846004803603604081101561024e57600080fd5b8101908080359060200190929190803573ffffffffffffffffffffffffffffffffffffffff169060200190929190505050611012565b6040518082815260200191505060405180910390f35b3480156102a657600080fd5b506102af611070565b6040518082815260200191505060405180910390f35b3480156102d157600080fd5b506102da61107a565b6040518080602001828103825283818151815260200191508051906020019060200280838360005b8381101561031d578082015181840152602081019050610302565b505050509050019250505060405180910390f35b34801561033d57600080fd5b506103466111d0565b604051808273ffffffffffffffffffffffffffffffffffffffff1673ffffffffffffffffffffffffffffffffffffffff16815260200191505060405180910390f35b34801561039457600080fd5b506103e1600480360360408110156103ab57600080fd5b81019080803573ffffffffffffffffffffffffffffffffffffffff169060200190929190803590602001909291905050506111fc565b005b3480156103ef57600080fd5b506103f861150b565b005b34801561040657600080fd5b506104c06004803603602081101561041d57600080fd5b810190808035906020019064010000000081111561043a57600080fd5b82018360208201111561044c57600080fd5b8035906020019184600183028401116401000000008311171561046e57600080fd5b91908080601f016020809104026020016040519081016040528093929190818152602001838380828437600081840152601f19601f82011690508083019250505050505050919291929050505061159e565b005b3480156104ce57600080fd5b506104fb600480360360208110156104e557600080fd5b810190808035906020019092919050505061170d565b005b34801561050957600080fd5b5061054c6004803603602081101561052057600080fd5b81019080803573ffffffffffffffffffffffffffffffffffffffff169060200190929190505050611bfb565b6040518080602001828103825283818151815260200191508051906020019080838360005b8381101561058c578082015181840152602081019050610571565b50505050905090810190601f1680156105b95780820380516001836020036101000a031916815260200191505b509250505060405180910390f35b3480156105d357600080fd5b50610600600480360360208110156105ea57600080fd5b8101908080359060200190929190505050611cab565b6040518082815260200191505060405180910390f35b34801561062257600080fd5b5061064f6004803603602081101561063957600080fd5b8101908080359060200190929190505050611ccc565b005b34801561065d57600080fd5b506106946004803603604081101561067457600080fd5b810190808035906020019092919080359060200190929190505050611d75565b604051808273ffffffffffffffffffffffffffffffffffffffff1673ffffffffffffffffffffffffffffffffffffffff16815260200191505060405180910390f35b3480156106e257600080fd5b50610725600480360360208110156106f957600080fd5b81019080803573ffffffffffffffffffffffffffffffffffffffff169060200190929190505050611db7565b005b34801561073357600080fd5b506107766004803603602081101561074a57600080fd5b81019080803573ffffffffffffffffffffffffffffffffffffffff169060200190929190505050611f6c565b604051808215151515815260200191505060405180910390f35b34801561079c57600080fd5b506107df600480360360208110156107b357600080fd5b81019080803573ffffffffffffffffffffffffffffffffffffffff169060200190929190505050611f8c565b604051808215151515815260200191505060405180910390f35b34801561080557600080fd5b506108326004803603602081101561081c57600080fd5b8101908080359060200190929190505050611ff3565b604051808215151515815260200191505060405180910390f35b34801561085857600080fd5b506108856004803603602081101561086f57600080fd5b81019080803590602001909291905050506121a5565b604051808981526020018873ffffffffffffffffffffffffffffffffffffffff1673ffffffffffffffffffffffffffffffffffffffff1681526020018773ffffffffffffffffffffffffffffffffffffffff1673ffffffffffffffffffffffffffffffffffffffff1681526020018681526020018581526020018060200184600281111561090f57fe5b60ff168152602001838152602001828103825285818151815260200191508051906020019080838360005b8381101561095557808201518184015260208101905061093a565b50505050905090810190601f1680156109825780820380516001836020036101000a031916815260200191505b50995050505050505050505060405180910390f35b3480156109a357600080fd5b506109e6600480360360208110156109ba57600080fd5b81019080803573ffffffffffffffffffffffffffffffffffffffff1690602001909291905050506122d2565b6040518082815260200191505060405180910390f35b610ad360048036036080811015610a1257600080fd5b81019080803590602001909291908035906020019092919080359060200190640100000000811115610a4357600080fd5b820183602082011115610a5557600080fd5b80359060200191846001830284011164010000000083111715610a7757600080fd5b91908080601f016020809104026020016040519081016040528093929190818152602001838380828437600081840152601f19601f820116905080830192505050505050509192919290803590602001909291905050506122ea565b005b348015610ae157600080fd5b50610aea612697565b6040518080602001828103825283818151815260200191508051906020019060200280838360005b83811015610b2d578082015181840152602081019050610b12565b505050509050019250505060405180910390f35b348015610b4d57600080fd5b50610c1160048036036040811015610b6457600080fd5b8101908080359060200190640100000000811115610b8157600080fd5b820183602082011115610b9357600080fd5b80359060200191846001830284011164010000000083111715610bb557600080fd5b91908080601f016020809104026020016040519081016040528093929190818152602001838380828437600081840152601f19601f82011690508083019250505050505050919291929080359060200190929190505050612815565b005b348015610c1f57600080fd5b50610c6260048036036020811015610c3657600080fd5b81019080803573ffffffffffffffffffffffffffffffffffffffff1690602001909291905050506128ca565b6040518080602001828103825283818151815260200191508051906020019080838360005b83811015610ca2578082015181840152602081019050610c87565b50505050905090810190601f168015610ccf5780820380516001836020036101000a031916815260200191505b509250505060405180910390f35b348015610ce957600080fd5b50610d1660048036036020811015610d0057600080fd5b81019080803590602001909291905050506129ae565b6040518082815260200191505060405180910390f35b80600260008473ffffffffffffffffffffffffffffffffffffffff1673ffffffffffffffffffffffffffffffffffffffff1681526020019081526020016000205401600260008473ffffffffffffffffffffffffffffffffffffffff1673ffffffffffffffffffffffffffffffffffffffff168152602001908152602001600020819055505050565b3373ffffffffffffffffffffffffffffffffffffffff166005600085815260200190815260200160002060010160009054906101000a900473ffffffffffffffffffffffffffffffffffffffff1673ffffffffffffffffffffffffffffffffffffffff1614610e2357600080fd5b60006002811115610e3057fe5b6005600085815260200190815260200160002060060160009054906101000a900460ff166002811115610e5f57fe5b14610e6957600080fd5b8073ffffffffffffffffffffffffffffffffffffffff1660066000858152602001908152602001600020600084815260200190815260200160002060009054906101000a900473ffffffffffffffffffffffffffffffffffffffff1673ffffffffffffffffffffffffffffffffffffffff1614610ee557600080fd5b42600560008581526020019081526020016000206004015401600c60008581526020019081526020016000208190555060016005600085815260200190815260200160002060060160006101000a81548160ff02191690836002811115610f4857fe5b0217905550806005600085815260200190815260200160002060020160006101000a81548173ffffffffffffffffffffffffffffffffffffffff021916908373ffffffffffffffffffffffffffffffffffffffff16021790555060056000848152602001908152602001600020600301546008600085815260200190815260200160002060008373ffffffffffffffffffffffffffffffffffffffff1673ffffffffffffffffffffffffffffffffffffffff16815260200190815260200160002081905550505050565b6000600a600084815260200190815260200160002060008373ffffffffffffffffffffffffffffffffffffffff1673ffffffffffffffffffffffffffffffffffffffff16815260200190815260200160002054905080905092915050565b6000600954905090565b6060806009546040519080825280602002602001820160405280156110ae5781602001602082028038833980820191505090505b50905060008090506000600190505b600954811161114d57600060028111156110d357fe5b6005600083815260200190815260200160002060060160009054906101000a900460ff16600281111561110257fe5b141561114057600560008281526020019081526020016000206000015483838151811061112b57fe5b60200260200101818152505081806001019250505b80806001019150506110bd565b508060405190808252806020026020018201604052801561117d5781602001602082028038833980820191505090505b50925060008090505b818110156111c75782818151811061119a57fe5b60200260200101518482815181106111ae57fe5b6020026020010181815250508080600101915050611186565b50829250505090565b60008060009054906101000a900473ffffffffffffffffffffffffffffffffffffffff16905080905090565b6000809054906101000a900473ffffffffffffffffffffffffffffffffffffffff1673ffffffffffffffffffffffffffffffffffffffff163373ffffffffffffffffffffffffffffffffffffffff161461125557600080fd5b600b600082815260200190815260200160002060009054906101000a900460ff161561128057600080fd5b8173ffffffffffffffffffffffffffffffffffffffff166005600083815260200190815260200160002060020160009054906101000a900473ffffffffffffffffffffffffffffffffffffffff1673ffffffffffffffffffffffffffffffffffffffff16146112ee57600080fd5b6002808111156112fa57fe5b6005600083815260200190815260200160002060060160009054906101000a900460ff16600281111561132957fe5b1480611385575042600a600083815260200190815260200160002060008473ffffffffffffffffffffffffffffffffffffffff1673ffffffffffffffffffffffffffffffffffffffff1681526020019081526020016000205411155b61138e57600080fd5b6000600560008381526020019081526020016000206003015490506008600083815260200190815260200160002060008473ffffffffffffffffffffffffffffffffffffffff1673ffffffffffffffffffffffffffffffffffffffff16815260200190815260200160002054811461140557600080fd5b8273ffffffffffffffffffffffffffffffffffffffff166108fc829081150290604051600060405180830381858888f1935050505015801561144b573d6000803e3d6000fd5b5060026005600084815260200190815260200160002060060160006101000a81548160ff0219169083600281111561147f57fe5b021790555060006008600084815260200190815260200160002060008573ffffffffffffffffffffffffffffffffffffffff1673ffffffffffffffffffffffffffffffffffffffff168152602001908152602001600020819055506001600b600084815260200190815260200160002060006101000a81548160ff021916908315150217905550505050565b6000809054906101000a900473ffffffffffffffffffffffffffffffffffffffff1673ffffffffffffffffffffffffffffffffffffffff163373ffffffffffffffffffffffffffffffffffffffff161461156457600080fd5b6000809054906101000a900473ffffffffffffffffffffffffffffffffffffffff1673ffffffffffffffffffffffffffffffffffffffff16ff5b6115a733611f8c565b1561161a576040517f08c379a00000000000000000000000000000000000000000000000000000000081526004018080602001828103825260178152602001807f766f757320657465732064656a6120696e73637269742100000000000000000081525060200191505060405180910390fd5b6001600260003373ffffffffffffffffffffffffffffffffffffffff1673ffffffffffffffffffffffffffffffffffffffff1681526020019081526020016000208190555080600360003373ffffffffffffffffffffffffffffffffffffffff1673ffffffffffffffffffffffffffffffffffffffff16815260200190815260200160002090805190602001906116b29291906129c6565b5060018060003373ffffffffffffffffffffffffffffffffffffffff1673ffffffffffffffffffffffffffffffffffffffff16815260200190815260200160002060006101000a81548160ff02191690831515021790555050565b60006009541161171c57600080fd5b60008111801561172e57506009548111155b61173757600080fd5b60006005600083815260200190815260200160002090506000600281111561175b57fe5b8160060160009054906101000a900460ff16600281111561177857fe5b1461178257600080fd5b8060010160009054906101000a900473ffffffffffffffffffffffffffffffffffffffff1673ffffffffffffffffffffffffffffffffffffffff163373ffffffffffffffffffffffffffffffffffffffff1614156117df57600080fd5b6117e833611f8c565b61185a576040517f08c379a00000000000000000000000000000000000000000000000000000000081526004018080602001828103825260168152602001807f766575696c6c657a20766f757320696e7363726972650000000000000000000081525060200191505060405180910390fd5b8060070154600260003373ffffffffffffffffffffffffffffffffffffffff1673ffffffffffffffffffffffffffffffffffffffff1681526020019081526020016000205410156118f6576040517f08c379a0000000000000000000000000000000000000000000000000000000008152600401808060200182810382526032815260200180612b186032913960400191505060405180910390fd5b60016007838154811061190557fe5b9060005260206000200160008282540192505081905550336006600084815260200190815260200160002060006007858154811061193f57fe5b9060005260206000200154815260200190815260200160002060006101000a81548173ffffffffffffffffffffffffffffffffffffffff021916908373ffffffffffffffffffffffffffffffffffffffff1602179055508060010160009054906101000a900473ffffffffffffffffffffffffffffffffffffffff16600e60003373ffffffffffffffffffffffffffffffffffffffff1673ffffffffffffffffffffffffffffffffffffffff16815260200190815260200160002060000160006101000a81548173ffffffffffffffffffffffffffffffffffffffff021916908373ffffffffffffffffffffffffffffffffffffffff16021790555060405180602001604052806000815250600e60003373ffffffffffffffffffffffffffffffffffffffff1673ffffffffffffffffffffffffffffffffffffffff1681526020019081526020016000206001019080519060200190611aa09291906129c6565b503373ffffffffffffffffffffffffffffffffffffffff168160010160009054906101000a900473ffffffffffffffffffffffffffffffffffffffff1673ffffffffffffffffffffffffffffffffffffffff16837fae2647c8562dd1f0dcd0fda6fde9778c8c032274b43e5d1236825ec52569f386600360003373ffffffffffffffffffffffffffffffffffffffff1673ffffffffffffffffffffffffffffffffffffffff16815260200190815260200160002085600301546040518080602001838152602001828103825284818154600181600116156101000203166002900481526020019150805460018160011615610100020316600290048015611be85780601f10611bbd57610100808354040283529160200191611be8565b820191906000526020600020905b815481529060010190602001808311611bcb57829003601f168201915b5050935050505060405180910390a45050565b60036020528060005260406000206000915090508054600181600116156101000203166002900480601f016020809104026020016040519081016040528092919081815260200182805460018160011615610100020316600290048015611ca35780601f10611c7857610100808354040283529160200191611ca3565b820191906000526020600020905b815481529060010190602001808311611c8657829003601f168201915b505050505081565b600060078281548110611cba57fe5b90600052602060002001549050919050565b3373ffffffffffffffffffffffffffffffffffffffff166005600083815260200190815260200160002060010160009054906101000a900473ffffffffffffffffffffffffffffffffffffffff1673ffffffffffffffffffffffffffffffffffffffff1614611d3a57600080fd5b60026005600083815260200190815260200160002060060160006101000a81548160ff02191690836002811115611d6d57fe5b021790555050565b60066020528160005260406000206020528060005260406000206000915091509054906101000a900473ffffffffffffffffffffffffffffffffffffffff1681565b611dc081611f8c565b611e15576040517f08c379a000000000000000000000000000000000000000000000000000000000815260040180806020018281038252602c815260200180612aec602c913960400191505060405180910390fd5b6000809054906101000a900473ffffffffffffffffffffffffffffffffffffffff1673ffffffffffffffffffffffffffffffffffffffff163373ffffffffffffffffffffffffffffffffffffffff161415611ec7576001600460008373ffffffffffffffffffffffffffffffffffffffff1673ffffffffffffffffffffffffffffffffffffffff16815260200190815260200160002060006101000a81548160ff021916908315150217905550611f69565b6000600260008373ffffffffffffffffffffffffffffffffffffffff1673ffffffffffffffffffffffffffffffffffffffff168152602001908152602001600020541415611f68576001600460008373ffffffffffffffffffffffffffffffffffffffff1673ffffffffffffffffffffffffffffffffffffffff16815260200190815260200160002060006101000a81548160ff0219169083151502179055505b5b50565b60016020528060005260406000206000915054906101000a900460ff1681565b6000600160008373ffffffffffffffffffffffffffffffffffffffff1673ffffffffffffffffffffffffffffffffffffffff16815260200190815260200160002060009054906101000a900460ff1615611fe95760019050611fee565b600090505b919050565b60003373ffffffffffffffffffffffffffffffffffffffff166005600084815260200190815260200160002060010160009054906101000a900473ffffffffffffffffffffffffffffffffffffffff1673ffffffffffffffffffffffffffffffffffffffff161461206357600080fd5b6120a26005600084815260200190815260200160002060020160009054906101000a900473ffffffffffffffffffffffffffffffffffffffff16611f8c565b6120ab57600080fd5b60006005600084815260200190815260200160002060020160009054906101000a900473ffffffffffffffffffffffffffffffffffffffff16905042600c600085815260200190815260200160002054111561219a576001600260008373ffffffffffffffffffffffffffffffffffffffff1673ffffffffffffffffffffffffffffffffffffffff1681526020019081526020016000205403600260008373ffffffffffffffffffffffffffffffffffffffff1673ffffffffffffffffffffffffffffffffffffffff1681526020019081526020016000208190555061219081611db7565b60019150506121a0565b60009150505b919050565b60056020528060005260406000206000915090508060000154908060010160009054906101000a900473ffffffffffffffffffffffffffffffffffffffff16908060020160009054906101000a900473ffffffffffffffffffffffffffffffffffffffff1690806003015490806004015490806005018054600181600116156101000203166002900480601f0160208091040260200160405190810160405280929190818152602001828054600181600116156101000203166002900480156122af5780601f10612284576101008083540402835291602001916122af565b820191906000526020600020905b81548152906001019060200180831161229257829003601f168201915b5050505050908060060160009054906101000a900460ff16908060070154905088565b60026020528060005260406000206000915090505481565b6122f333611f8c565b6122fc57600080fd5b600460003373ffffffffffffffffffffffffffffffffffffffff1673ffffffffffffffffffffffffffffffffffffffff16815260200190815260200160002060009054906101000a900460ff161561235357600080fd5b60006064606686028161236257fe5b04905080341461237157600080fd5b6000600d60009054906101000a900473ffffffffffffffffffffffffffffffffffffffff1673ffffffffffffffffffffffffffffffffffffffff166108fc839081150290604051600060405180830381858888f193505050501580156123db573d6000803e3d6000fd5b5060096000815480929190600101919050555060405180610100016040528060095481526020013373ffffffffffffffffffffffffffffffffffffffff1681526020018273ffffffffffffffffffffffffffffffffffffffff1681526020018781526020018681526020018581526020016000600281111561245957fe5b8152602001848152506005600060095481526020019081526020016000206000820151816000015560208201518160010160006101000a81548173ffffffffffffffffffffffffffffffffffffffff021916908373ffffffffffffffffffffffffffffffffffffffff16021790555060408201518160020160006101000a81548173ffffffffffffffffffffffffffffffffffffffff021916908373ffffffffffffffffffffffffffffffffffffffff160217905550606082015181600301556080820151816004015560a082015181600501908051906020019061253f929190612a46565b5060c08201518160060160006101000a81548160ff0219169083600281111561256457fe5b021790555060e082015181600701559050503373ffffffffffffffffffffffffffffffffffffffff166009547fb64b67567ddff518d391fc669bf340a6614d524c62b16548fd387347323513f8600360003373ffffffffffffffffffffffffffffffffffffffff1673ffffffffffffffffffffffffffffffffffffffff1681526020019081526020016000208960405180806020018381526020018281038252848181546001816001161561010002031660029004815260200191508054600181600116156101000203166002900480156126805780601f1061265557610100808354040283529160200191612680565b820191906000526020600020905b81548152906001019060200180831161266357829003601f168201915b5050935050505060405180910390a3505050505050565b6060806009546040519080825280602002602001820160405280156126cb5781602001602082028038833980820191505090505b50905060008090506000600190505b6009548111612792573373ffffffffffffffffffffffffffffffffffffffff166005600083815260200190815260200160002060010160009054906101000a900473ffffffffffffffffffffffffffffffffffffffff1673ffffffffffffffffffffffffffffffffffffffff16141561278557600560008281526020019081526020016000206000015483838151811061277057fe5b60200260200101818152505081806001019250505b80806001019150506126da565b50806040519080825280602002602001820160405280156127c25781602001602082028038833980820191505090505b50925060008090505b8181101561280c578281815181106127df57fe5b60200260200101518482815181106127f357fe5b60200260200101818152505080806001019150506127cb565b50829250505090565b81600e60003373ffffffffffffffffffffffffffffffffffffffff1673ffffffffffffffffffffffffffffffffffffffff168152602001908152602001600020600101908051906020019061286b9291906129c6565b5062093a804201600a600083815260200190815260200160002060003373ffffffffffffffffffffffffffffffffffffffff1673ffffffffffffffffffffffffffffffffffffffff168152602001908152602001600020819055505050565b6060600360008373ffffffffffffffffffffffffffffffffffffffff1673ffffffffffffffffffffffffffffffffffffffff1681526020019081526020016000208054600181600116156101000203166002900480601f01602080910402602001604051908101604052809291908181526020018280546001816001161561010002031660029004801561299f5780601f106129745761010080835404028352916020019161299f565b820191906000526020600020905b81548152906001019060200180831161298257829003601f168201915b50505050509050809050919050565b600c6020528060005260406000206000915090505481565b828054600181600116156101000203166002900490600052602060002090601f016020900481019282601f10612a0757805160ff1916838001178555612a35565b82800160010185558215612a35579182015b82811115612a34578251825591602001919060010190612a19565b5b509050612a429190612ac6565b5090565b828054600181600116156101000203166002900490600052602060002090601f016020900481019282601f10612a8757805160ff1916838001178555612ab5565b82800160010185558215612ab5579182015b82811115612ab4578251825591602001919060010190612a99565b5b509050612ac29190612ac6565b5090565b612ae891905b80821115612ae4576000816000905550600101612acc565b5090565b9056fe63657474652041646472657373206e20657374207061732064616e73206c61206261736520646520646f6e6572657075746174696f6e20696e737566666973616e746520706f757220616363656465722061206365747465206f66667265a265627a7a72315820a70595340a35b9d6e8e317c42b1aba4f59ecc8b4175f1f200905aeb14d0bd0a064736f6c634300050c0032",
  "source": "pragma solidity ^0.5.12;\n//pragma experimental ABIEncoderV2;\nimport \"./Ownable.sol\";\n\n\ncontract PlaceDeMarche is Ownable {\n\n  enum Etat {OUVERTE,ENCOURS,FERMEE}\n  mapping (address => bool) public membres;\n  mapping(address => uint256) public reputation;\n  mapping(address => string) public  names;\n  mapping (address => bool) private addressBannies; // address bannies true adress bannies false\n  mapping (uint => Demande) public demandes;\n  mapping (uint =>mapping(uint => address))public candidates;\n  uint[] CandidatsCounter;\n  mapping(uint =>mapping(address=> uint256)) private _balance;\n  uint demandeCounter;\n mapping(uint => mapping(address =>uint)) private delytopay;\n mapping(uint => bool) private dejaPaye;\n mapping(uint => uint) public dataLimte;\n\n  address payable private wallet;\n  mapping (address => Link) private links;\n\n\n  struct Demande {\n    uint id;\n    address entreprise;\n    address illustrateur;\n    uint256 remuneration;\n    uint256 delai;\n    string description;\n    Etat etatDemande;\n    uint256 minReputation;\n\n }\n struct Link {\n  address entreprise;\n  string url;\n }\n\n event LogAjouterDemande(\n   uint indexed _id,\n   address indexed _entreprise,\n   string _name,\n   uint256 _remuneration\n );\n event LogPostuler(\n   uint indexed _id,\n   address indexed _entreprise,\n   address indexed _illustrateur,\n   string _name,\n   uint256 _remuneration\n );\n\n // deactivate the contract\n function kill() public onlyOwner {\n   selfdestruct(admin);\n }\n\n     constructor() public {\n\n         wallet = admin;\n         membres[admin]=true;\n         names[admin]= \"Administrateur\";\n\n    }\n\nfunction inscription(string memory nume) public  {\n    require(!estMembre(msg.sender),\"vous etes deja inscrit!\");\n     reputation[msg.sender] = 1;\n     names[msg.sender]= nume;\n     membres[msg.sender]=true;\n }\n\n function estMembre(address utilisateur) public view returns (bool) {\n\n            if (membres[utilisateur]) {\n                return true;\n            }else{\n\n        return false;\n            }\n    }\n\n    function ajouterDemande( uint256  _remuneration,uint256  _delai,string memory _description,uint256 _minReputation) public payable {\n        require(estMembre(msg.sender));\n        require(!addressBannies[msg.sender]);\n        uint256 amount = _remuneration*102/100;\n        require(msg.value == amount);\n        address illustrateur;\n        wallet.transfer(amount);\n        demandeCounter++;\n        demandes[demandeCounter] = Demande(\n          demandeCounter,\n          msg.sender,\n         illustrateur,\n          _remuneration,\n          _delai,\n          _description,\n          Etat.OUVERTE,\n          _minReputation\n\n          );\n\n          emit LogAjouterDemande(\n            demandeCounter,\n            msg.sender,\n            names[msg.sender],\n            _remuneration\n          );\n    }\n\n    function getNumberOfDemande() public view returns (uint) {\n      return demandeCounter;\n    }\n    function getNumberOfMyCandidats(uint _indice) public view returns (uint) {\n      return CandidatsCounter[_indice];\n    }\n\n    function getDemandesOuverte() public view returns ( uint[] memory demandesOuverte) {\n      // prepare output array\n      uint[] memory demandeIds = new  uint[](demandeCounter);\n\n      uint numberOfDemandesOuverte = 0;\n      // iterate over articles\n      for(uint i = 1; i <= demandeCounter;  i++) {\n        // keep the ID if the article is still for sale\n        if(demandes[i].etatDemande == Etat.OUVERTE) {\n          demandeIds[numberOfDemandesOuverte] = demandes[i].id;\n          numberOfDemandesOuverte++;\n        }\n      }\n\n      // copy the articleIds array into a smaller forSale array\n      demandesOuverte = new uint[](numberOfDemandesOuverte);\n      for(uint j = 0; j < numberOfDemandesOuverte; j++) {\n        demandesOuverte[j] = demandeIds[j];\n      }\n      return demandesOuverte;\n    }\n    function getMesDemandes() public view returns ( uint[] memory Mesdemandes) {\n      // prepare output array\n      uint[] memory demandeIds = new  uint[](demandeCounter);\n\n      uint numberOfMesdemandes = 0;\n      // iterate over articles\n      for(uint i = 1; i <= demandeCounter;  i++) {\n        // keep the ID if the article is still for sale\n        if(demandes[i].entreprise == msg.sender) {\n          demandeIds[numberOfMesdemandes] = demandes[i].id;\n          numberOfMesdemandes++;\n        }\n      }\n\n      // copy the articleIds array into a smaller forSale array\n      Mesdemandes = new uint[](numberOfMesdemandes);\n      for(uint j = 0; j < numberOfMesdemandes; j++) {\n        Mesdemandes[j] = demandeIds[j];\n      }\n      return Mesdemandes;\n    }\n\n\n    function postuler(uint _indice) public {\n        //permet  un indpendant de proposer ses services. Il est alors ajout  la liste des candidats\n        require(demandeCounter > 0);\n\n        // we check that the article exists\n        require(_indice > 0 && _indice <= demandeCounter);\n\n        // we retrieve the article\n        Demande storage demende = demandes[_indice];\n\n        // we check that the article has not been sold yet\n        require(demende.etatDemande == Etat.OUVERTE);\n\n        // we don't allow the seller to buy his own article\n        require(msg.sender != demende.entreprise);\n        require(estMembre(msg.sender),\"veuillez vous inscrire\");\n        require(reputation[msg.sender]>= demende.minReputation, \"reputation insuffisante pour acceder a cette offre\");\n        CandidatsCounter[_indice] +=1;\n        candidates[_indice][CandidatsCounter[_indice]]= msg.sender;\n        links[msg.sender].entreprise = demende.entreprise;\n        links[msg.sender].url = \"\";\n        emit LogPostuler(\n          _indice,\n          demende.entreprise,\n          msg.sender,\n          names[msg.sender],\n          demende.remuneration\n        );\n\n    }\n\n    function accepterOffre(uint indDemande,uint indiceCandidat, address _candidats) public {\n        //permet  lentreprise daccepter un illustrateur. La demande est alors ENCOURS jusqu sa remise\n        require(demandes[indDemande].entreprise == msg.sender);\n        require(demandes[indDemande].etatDemande == Etat.OUVERTE);\n        require(candidates[indDemande][indiceCandidat]== _candidats);\n        dataLimte[indDemande]= demandes[indDemande].delai+ now;\n        demandes[indDemande].etatDemande = Etat.ENCOURS;\n        demandes[indDemande].illustrateur = _candidats;\n        _balance[indDemande][_candidats] =demandes[indDemande].remuneration;\n\n\n    }\n\n     function livraison(string memory _url,uint _id) public {\n         links[msg.sender].url = _url;\n         delytopay[_id][msg.sender] = now + 604800;\n\n     }\n\n     function fermerDemande(uint _id) public {\n         require(demandes[_id].entreprise == msg.sender);\n         demandes[_id].etatDemande = Etat.FERMEE;\n     }\n\n     function sanctionne(address _membre) public {\n       require(estMembre(_membre),\"cette Address n est pas dans la base de done\");\n         if(msg.sender == admin){\n\n             addressBannies[_membre] = true;\n         }else{\n             if(reputation[_membre]== 0){\n                 addressBannies[_membre] = true;\n             }\n         }\n\n     }\n\n     function estEnRetard(uint indDemande) public  returns (bool){\n         require(demandes[indDemande].entreprise == msg.sender);\n         require(estMembre(demandes[indDemande].illustrateur));\n      address _candidats = demandes[indDemande].illustrateur;\n         if(dataLimte[indDemande]>now){\n             reputation[_candidats] = reputation[_candidats] -1;\n             sanctionne(_candidats);\n             return true;\n         }else{\n             return false;\n\n         }\n\n     }\n     function satisfaction(address _membre,uint256 _satisfaction) public {\n\n         reputation[_membre] = reputation[_membre] + _satisfaction;\n     }\n\n     function transferToIllstrateur(address payable _illestrateur,uint _id) public {\n         require(msg.sender == admin);\n         require(!dejaPaye[_id]);\n         require(demandes[_id].illustrateur == _illestrateur);\n         require( demandes[_id].etatDemande == Etat.FERMEE || delytopay[_id][_illestrateur]<= now);\n         uint256 amount = demandes[_id].remuneration;\n         require(amount == _balance[_id][_illestrateur]);\n         _illestrateur.transfer(amount);\n         demandes[_id].etatDemande = Etat.FERMEE;\n         _balance[_id][_illestrateur]=0;\n         dejaPaye[_id]=true;\n\n     }\n\n     function getmembresName(address addr) public view returns (string memory nom){\n        nom = names[addr];\n       return nom;\n     }\n    function getAdminAdress() public view returns (address  addre){\n      addre = admin;\n      return addre;\n    }\n    function getDelyTopay(uint _id,address _illustrateur) public view returns (uint tmp){\n     tmp = delytopay[_id][_illustrateur];\n     return tmp;\n    }\n\n}\n",
  "sourcePath": "/home/ingmedical16/exercices/AlyraSchool/HomeWork/Semaine4/dife2/contracts/PlaceDeMarche.sol",
  "compiler": {
    "name": "solc",
    "version": "0.5.12+commit.7709ece9.Emscripten.clang"
  },
  "schemaVersion": "3.0.19",
  "updatedAt": "2019-11-21T00:04:26.706Z",
  "networkType": "ethereum",
  "devdoc": {
    "methods": {}
  },
  "userdoc": {
    "methods": {}
  }
}