{
  "contractName": "PlaceDeMarche",
  "abi": [
    {
      "inputs": [],
      "payable": false,
      "stateMutability": "nonpayable",
      "type": "constructor"
    },
    {
      "anonymous": false,
      "inputs": [
        {
          "indexed": true,
          "internalType": "uint256",
          "name": "_id",
          "type": "uint256"
        },
        {
          "indexed": true,
          "internalType": "address",
          "name": "_entreprise",
          "type": "address"
        },
        {
          "indexed": false,
          "internalType": "string",
          "name": "_name",
          "type": "string"
        },
        {
          "indexed": false,
          "internalType": "uint256",
          "name": "_remuneration",
          "type": "uint256"
        }
      ],
      "name": "LogAjouterDemande",
      "type": "event"
    },
    {
      "anonymous": false,
      "inputs": [
        {
          "indexed": true,
          "internalType": "uint256",
          "name": "_id",
          "type": "uint256"
        },
        {
          "indexed": true,
          "internalType": "address",
          "name": "_entreprise",
          "type": "address"
        },
        {
          "indexed": true,
          "internalType": "address",
          "name": "_illustrateur",
          "type": "address"
        },
        {
          "indexed": false,
          "internalType": "string",
          "name": "_name",
          "type": "string"
        },
        {
          "indexed": false,
          "internalType": "uint256",
          "name": "_remuneration",
          "type": "uint256"
        }
      ],
      "name": "LogPostuler",
      "type": "event"
    },
    {
      "constant": true,
      "inputs": [
        {
          "internalType": "uint256",
          "name": "",
          "type": "uint256"
        },
        {
          "internalType": "address",
          "name": "",
          "type": "address"
        }
      ],
      "name": "candidates",
      "outputs": [
        {
          "internalType": "bool",
          "name": "",
          "type": "bool"
        }
      ],
      "payable": false,
      "stateMutability": "view",
      "type": "function"
    },
    {
      "constant": true,
      "inputs": [
        {
          "internalType": "uint256",
          "name": "",
          "type": "uint256"
        }
      ],
      "name": "dataLimte",
      "outputs": [
        {
          "internalType": "uint256",
          "name": "",
          "type": "uint256"
        }
      ],
      "payable": false,
      "stateMutability": "view",
      "type": "function"
    },
    {
      "constant": true,
      "inputs": [
        {
          "internalType": "uint256",
          "name": "",
          "type": "uint256"
        }
      ],
      "name": "demandes",
      "outputs": [
        {
          "internalType": "uint256",
          "name": "id",
          "type": "uint256"
        },
        {
          "internalType": "address",
          "name": "entreprise",
          "type": "address"
        },
        {
          "internalType": "address",
          "name": "illustrateur",
          "type": "address"
        },
        {
          "internalType": "uint256",
          "name": "remuneration",
          "type": "uint256"
        },
        {
          "internalType": "uint256",
          "name": "delai",
          "type": "uint256"
        },
        {
          "internalType": "string",
          "name": "description",
          "type": "string"
        },
        {
          "internalType": "enum PlaceDeMarche.Etat",
          "name": "etatDemande",
          "type": "uint8"
        },
        {
          "internalType": "uint256",
          "name": "minReputation",
          "type": "uint256"
        }
      ],
      "payable": false,
      "stateMutability": "view",
      "type": "function"
    },
    {
      "constant": true,
      "inputs": [
        {
          "internalType": "address",
          "name": "",
          "type": "address"
        }
      ],
      "name": "membres",
      "outputs": [
        {
          "internalType": "bool",
          "name": "",
          "type": "bool"
        }
      ],
      "payable": false,
      "stateMutability": "view",
      "type": "function"
    },
    {
      "constant": true,
      "inputs": [
        {
          "internalType": "address",
          "name": "",
          "type": "address"
        }
      ],
      "name": "names",
      "outputs": [
        {
          "internalType": "string",
          "name": "",
          "type": "string"
        }
      ],
      "payable": false,
      "stateMutability": "view",
      "type": "function"
    },
    {
      "constant": true,
      "inputs": [
        {
          "internalType": "address",
          "name": "",
          "type": "address"
        }
      ],
      "name": "reputation",
      "outputs": [
        {
          "internalType": "uint256",
          "name": "",
          "type": "uint256"
        }
      ],
      "payable": false,
      "stateMutability": "view",
      "type": "function"
    },
    {
      "constant": false,
      "inputs": [],
      "name": "kill",
      "outputs": [],
      "payable": false,
      "stateMutability": "nonpayable",
      "type": "function"
    },
    {
      "constant": false,
      "inputs": [
        {
          "internalType": "string",
          "name": "nume",
          "type": "string"
        }
      ],
      "name": "inscription",
      "outputs": [],
      "payable": false,
      "stateMutability": "nonpayable",
      "type": "function"
    },
    {
      "constant": true,
      "inputs": [
        {
          "internalType": "address",
          "name": "utilisateur",
          "type": "address"
        }
      ],
      "name": "estMembre",
      "outputs": [
        {
          "internalType": "bool",
          "name": "",
          "type": "bool"
        }
      ],
      "payable": false,
      "stateMutability": "view",
      "type": "function"
    },
    {
      "constant": false,
      "inputs": [
        {
          "internalType": "uint256",
          "name": "_remuneration",
          "type": "uint256"
        },
        {
          "internalType": "uint256",
          "name": "_delai",
          "type": "uint256"
        },
        {
          "internalType": "string",
          "name": "_description",
          "type": "string"
        },
        {
          "internalType": "uint256",
          "name": "_minReputation",
          "type": "uint256"
        }
      ],
      "name": "ajouterDemande",
      "outputs": [],
      "payable": true,
      "stateMutability": "payable",
      "type": "function"
    },
    {
      "constant": true,
      "inputs": [],
      "name": "getNumberOfDemande",
      "outputs": [
        {
          "internalType": "uint256",
          "name": "",
          "type": "uint256"
        }
      ],
      "payable": false,
      "stateMutability": "view",
      "type": "function"
    },
    {
      "constant": true,
      "inputs": [],
      "name": "getDemandesOuverte",
      "outputs": [
        {
          "internalType": "uint256[]",
          "name": "demandesOuverte",
          "type": "uint256[]"
        }
      ],
      "payable": false,
      "stateMutability": "view",
      "type": "function"
    },
    {
      "constant": true,
      "inputs": [],
      "name": "getMesDemandes",
      "outputs": [
        {
          "internalType": "uint256[]",
          "name": "Mesdemandes",
          "type": "uint256[]"
        }
      ],
      "payable": false,
      "stateMutability": "view",
      "type": "function"
    },
    {
      "constant": false,
      "inputs": [
        {
          "internalType": "uint256",
          "name": "_indice",
          "type": "uint256"
        }
      ],
      "name": "postuler",
      "outputs": [],
      "payable": false,
      "stateMutability": "nonpayable",
      "type": "function"
    },
    {
      "constant": false,
      "inputs": [
        {
          "internalType": "uint256",
          "name": "indDemande",
          "type": "uint256"
        },
        {
          "internalType": "address",
          "name": "_candidats",
          "type": "address"
        }
      ],
      "name": "accepterOffre",
      "outputs": [],
      "payable": false,
      "stateMutability": "nonpayable",
      "type": "function"
    },
    {
      "constant": false,
      "inputs": [
        {
          "internalType": "string",
          "name": "_url",
          "type": "string"
        },
        {
          "internalType": "uint256",
          "name": "_id",
          "type": "uint256"
        }
      ],
      "name": "livraison",
      "outputs": [],
      "payable": false,
      "stateMutability": "nonpayable",
      "type": "function"
    },
    {
      "constant": false,
      "inputs": [
        {
          "internalType": "uint256",
          "name": "_id",
          "type": "uint256"
        }
      ],
      "name": "fermerDemande",
      "outputs": [],
      "payable": false,
      "stateMutability": "nonpayable",
      "type": "function"
    },
    {
      "constant": false,
      "inputs": [
        {
          "internalType": "address",
          "name": "_membre",
          "type": "address"
        }
      ],
      "name": "sanctionne",
      "outputs": [],
      "payable": false,
      "stateMutability": "nonpayable",
      "type": "function"
    },
    {
      "constant": false,
      "inputs": [
        {
          "internalType": "uint256",
          "name": "indDemande",
          "type": "uint256"
        },
        {
          "internalType": "address",
          "name": "_candidats",
          "type": "address"
        }
      ],
      "name": "estEnRetard",
      "outputs": [
        {
          "internalType": "bool",
          "name": "",
          "type": "bool"
        }
      ],
      "payable": false,
      "stateMutability": "nonpayable",
      "type": "function"
    },
    {
      "constant": false,
      "inputs": [
        {
          "internalType": "address",
          "name": "_membre",
          "type": "address"
        },
        {
          "internalType": "uint256",
          "name": "_satisfaction",
          "type": "uint256"
        }
      ],
      "name": "satisfaction",
      "outputs": [],
      "payable": false,
      "stateMutability": "nonpayable",
      "type": "function"
    },
    {
      "constant": false,
      "inputs": [
        {
          "internalType": "address payable",
          "name": "_illestrateur",
          "type": "address"
        },
        {
          "internalType": "uint256",
          "name": "_id",
          "type": "uint256"
        }
      ],
      "name": "transferToIllstrateur",
      "outputs": [],
      "payable": false,
      "stateMutability": "nonpayable",
      "type": "function"
    },
    {
      "constant": true,
      "inputs": [
        {
          "internalType": "address",
          "name": "addr",
          "type": "address"
        }
      ],
      "name": "getmembresName",
      "outputs": [
        {
          "internalType": "string",
          "name": "nom",
          "type": "string"
        }
      ],
      "payable": false,
      "stateMutability": "view",
      "type": "function"
    },
    {
      "constant": true,
      "inputs": [],
      "name": "getAdminAdress",
      "outputs": [
        {
          "internalType": "address",
          "name": "addre",
          "type": "address"
        }
      ],
      "payable": false,
      "stateMutability": "view",
      "type": "function"
    },
    {
      "constant": true,
      "inputs": [
        {
          "internalType": "uint256",
          "name": "_id",
          "type": "uint256"
        },
        {
          "internalType": "address",
          "name": "_illustrateur",
          "type": "address"
        }
      ],
      "name": "getDelyTopay",
      "outputs": [
        {
          "internalType": "uint256",
          "name": "tmp",
          "type": "uint256"
        }
      ],
      "payable": false,
      "stateMutability": "view",
      "type": "function"
    }
  ],
  "bytecode": "0x60806040523480156200001157600080fd5b50336000806101000a81548173ffffffffffffffffffffffffffffffffffffffff021916908373ffffffffffffffffffffffffffffffffffffffff1602179055506000809054906101000a900473ffffffffffffffffffffffffffffffffffffffff16600c60006101000a81548173ffffffffffffffffffffffffffffffffffffffff021916908373ffffffffffffffffffffffffffffffffffffffff16021790555060018060008060009054906101000a900473ffffffffffffffffffffffffffffffffffffffff1673ffffffffffffffffffffffffffffffffffffffff1673ffffffffffffffffffffffffffffffffffffffff16815260200190815260200160002060006101000a81548160ff0219169083151502179055506040518060400160405280600e81526020017f41646d696e697374726174657572000000000000000000000000000000000000815250600360008060009054906101000a900473ffffffffffffffffffffffffffffffffffffffff1673ffffffffffffffffffffffffffffffffffffffff1673ffffffffffffffffffffffffffffffffffffffff1681526020019081526020016000209080519060200190620001d7929190620001de565b506200028d565b828054600181600116156101000203166002900490600052602060002090601f016020900481019282601f106200022157805160ff191683800117855562000252565b8280016001018555821562000252579182015b828111156200025157825182559160200191906001019062000234565b5b50905062000261919062000265565b5090565b6200028a91905b80821115620002865760008160009055506001016200026c565b5090565b90565b6129ec806200029d6000396000f3fe60806040526004361061014b5760003560e01c806374eef98f116100b6578063cbfad3501161006f578063cbfad3501461093b578063cf73cb1f14610a14578063d30a95a614610a80578063df15d8fc14610b52578063e783a5b414610c1c578063fb94958914610c775761014b565b806374eef98f146105f5578063a03b913f14610668578063a057eefe146106b9578063b0a3734a14610722578063b5e2bf2f1461078b578063b9f79451146108d65761014b565b806341c0e1b51161010857806341c0e1b5146103635780634476cf591461037a57806345ea43b01461044257806354868d431461047d5780635cf3d346146104f057806373306288146105ba5761014b565b80630511bd221461015057806311ca6acb146101ab57806313bcd11e1461021a578063375f7dcb146102455780633ef7fec7146102b15780633efcdf4a14610308575b600080fd5b34801561015c57600080fd5b506101a96004803603604081101561017357600080fd5b81019080803573ffffffffffffffffffffffffffffffffffffffff16906020019092919080359060200190929190505050610cc6565b005b3480156101b757600080fd5b50610204600480360360408110156101ce57600080fd5b8101908080359060200190929190803573ffffffffffffffffffffffffffffffffffffffff169060200190929190505050610d4f565b6040518082815260200191505060405180910390f35b34801561022657600080fd5b5061022f610dad565b6040518082815260200191505060405180910390f35b34801561025157600080fd5b5061025a610db7565b6040518080602001828103825283818151815260200191508051906020019060200280838360005b8381101561029d578082015181840152602081019050610282565b505050509050019250505060405180910390f35b3480156102bd57600080fd5b506102c6610f0d565b604051808273ffffffffffffffffffffffffffffffffffffffff1673ffffffffffffffffffffffffffffffffffffffff16815260200191505060405180910390f35b34801561031457600080fd5b506103616004803603604081101561032b57600080fd5b81019080803573ffffffffffffffffffffffffffffffffffffffff16906020019092919080359060200190929190505050610f39565b005b34801561036f57600080fd5b50610378611248565b005b34801561038657600080fd5b506104406004803603602081101561039d57600080fd5b81019080803590602001906401000000008111156103ba57600080fd5b8201836020820111156103cc57600080fd5b803590602001918460018302840111640100000000831117156103ee57600080fd5b91908080601f016020809104026020016040519081016040528093929190818152602001838380828437600081840152601f19601f8201169050808301925050505050505091929192905050506112db565b005b34801561044e57600080fd5b5061047b6004803603602081101561046557600080fd5b810190808035906020019092919050505061144a565b005b34801561048957600080fd5b506104d6600480360360408110156104a057600080fd5b8101908080359060200190929190803573ffffffffffffffffffffffffffffffffffffffff1690602001909291905050506118f4565b604051808215151515815260200191505060405180910390f35b3480156104fc57600080fd5b5061053f6004803603602081101561051357600080fd5b81019080803573ffffffffffffffffffffffffffffffffffffffff169060200190929190505050611923565b6040518080602001828103825283818151815260200191508051906020019080838360005b8381101561057f578082015181840152602081019050610564565b50505050905090810190601f1680156105ac5780820380516001836020036101000a031916815260200191505b509250505060405180910390f35b3480156105c657600080fd5b506105f3600480360360208110156105dd57600080fd5b81019080803590602001909291905050506119d3565b005b34801561060157600080fd5b5061064e6004803603604081101561061857600080fd5b8101908080359060200190929190803573ffffffffffffffffffffffffffffffffffffffff169060200190929190505050611a7c565b604051808215151515815260200191505060405180910390f35b34801561067457600080fd5b506106b76004803603602081101561068b57600080fd5b81019080803573ffffffffffffffffffffffffffffffffffffffff169060200190929190505050611c18565b005b3480156106c557600080fd5b50610708600480360360208110156106dc57600080fd5b81019080803573ffffffffffffffffffffffffffffffffffffffff169060200190929190505050611d6f565b604051808215151515815260200191505060405180910390f35b34801561072e57600080fd5b506107716004803603602081101561074557600080fd5b81019080803573ffffffffffffffffffffffffffffffffffffffff169060200190929190505050611d8f565b604051808215151515815260200191505060405180910390f35b34801561079757600080fd5b506107c4600480360360208110156107ae57600080fd5b8101908080359060200190929190505050611df6565b604051808981526020018873ffffffffffffffffffffffffffffffffffffffff1673ffffffffffffffffffffffffffffffffffffffff1681526020018773ffffffffffffffffffffffffffffffffffffffff1673ffffffffffffffffffffffffffffffffffffffff1681526020018681526020018581526020018060200184600281111561084e57fe5b60ff168152602001838152602001828103825285818151815260200191508051906020019080838360005b83811015610894578082015181840152602081019050610879565b50505050905090810190601f1680156108c15780820380516001836020036101000a031916815260200191505b50995050505050505050505060405180910390f35b3480156108e257600080fd5b50610925600480360360208110156108f957600080fd5b81019080803573ffffffffffffffffffffffffffffffffffffffff169060200190929190505050611f23565b6040518082815260200191505060405180910390f35b610a126004803603608081101561095157600080fd5b8101908080359060200190929190803590602001909291908035906020019064010000000081111561098257600080fd5b82018360208201111561099457600080fd5b803590602001918460018302840111640100000000831117156109b657600080fd5b91908080601f016020809104026020016040519081016040528093929190818152602001838380828437600081840152601f19601f82011690508083019250505050505050919291929080359060200190929190505050611f3b565b005b348015610a2057600080fd5b50610a296122e8565b6040518080602001828103825283818151815260200191508051906020019060200280838360005b83811015610a6c578082015181840152602081019050610a51565b505050509050019250505060405180910390f35b348015610a8c57600080fd5b50610b5060048036036040811015610aa357600080fd5b8101908080359060200190640100000000811115610ac057600080fd5b820183602082011115610ad257600080fd5b80359060200191846001830284011164010000000083111715610af457600080fd5b91908080601f016020809104026020016040519081016040528093929190818152602001838380828437600081840152601f19601f82011690508083019250505050505050919291929080359060200190929190505050612466565b005b348015610b5e57600080fd5b50610ba160048036036020811015610b7557600080fd5b81019080803573ffffffffffffffffffffffffffffffffffffffff16906020019092919050505061251b565b6040518080602001828103825283818151815260200191508051906020019080838360005b83811015610be1578082015181840152602081019050610bc6565b50505050905090810190601f168015610c0e5780820380516001836020036101000a031916815260200191505b509250505060405180910390f35b348015610c2857600080fd5b50610c7560048036036040811015610c3f57600080fd5b8101908080359060200190929190803573ffffffffffffffffffffffffffffffffffffffff1690602001909291905050506125ff565b005b348015610c8357600080fd5b50610cb060048036036020811015610c9a57600080fd5b8101908080359060200190929190505050612848565b6040518082815260200191505060405180910390f35b80600260008473ffffffffffffffffffffffffffffffffffffffff1673ffffffffffffffffffffffffffffffffffffffff1681526020019081526020016000205401600260008473ffffffffffffffffffffffffffffffffffffffff1673ffffffffffffffffffffffffffffffffffffffff168152602001908152602001600020819055505050565b60006009600084815260200190815260200160002060008373ffffffffffffffffffffffffffffffffffffffff1673ffffffffffffffffffffffffffffffffffffffff16815260200190815260200160002054905080905092915050565b6000600854905090565b606080600854604051908082528060200260200182016040528015610deb5781602001602082028038833980820191505090505b50905060008090506000600190505b6008548111610e8a5760006002811115610e1057fe5b6005600083815260200190815260200160002060060160009054906101000a900460ff166002811115610e3f57fe5b1415610e7d576005600082815260200190815260200160002060000154838381518110610e6857fe5b60200260200101818152505081806001019250505b8080600101915050610dfa565b5080604051908082528060200260200182016040528015610eba5781602001602082028038833980820191505090505b50925060008090505b81811015610f0457828181518110610ed757fe5b6020026020010151848281518110610eeb57fe5b6020026020010181815250508080600101915050610ec3565b50829250505090565b60008060009054906101000a900473ffffffffffffffffffffffffffffffffffffffff16905080905090565b6000809054906101000a900473ffffffffffffffffffffffffffffffffffffffff1673ffffffffffffffffffffffffffffffffffffffff163373ffffffffffffffffffffffffffffffffffffffff1614610f9257600080fd5b600a600082815260200190815260200160002060009054906101000a900460ff1615610fbd57600080fd5b8173ffffffffffffffffffffffffffffffffffffffff166005600083815260200190815260200160002060020160009054906101000a900473ffffffffffffffffffffffffffffffffffffffff1673ffffffffffffffffffffffffffffffffffffffff161461102b57600080fd5b60028081111561103757fe5b6005600083815260200190815260200160002060060160009054906101000a900460ff16600281111561106657fe5b14806110c25750426009600083815260200190815260200160002060008473ffffffffffffffffffffffffffffffffffffffff1673ffffffffffffffffffffffffffffffffffffffff1681526020019081526020016000205411155b6110cb57600080fd5b6000600560008381526020019081526020016000206003015490506007600083815260200190815260200160002060008473ffffffffffffffffffffffffffffffffffffffff1673ffffffffffffffffffffffffffffffffffffffff16815260200190815260200160002054811461114257600080fd5b8273ffffffffffffffffffffffffffffffffffffffff166108fc829081150290604051600060405180830381858888f19350505050158015611188573d6000803e3d6000fd5b5060026005600084815260200190815260200160002060060160006101000a81548160ff021916908360028111156111bc57fe5b021790555060006007600084815260200190815260200160002060008573ffffffffffffffffffffffffffffffffffffffff1673ffffffffffffffffffffffffffffffffffffffff168152602001908152602001600020819055506001600a600084815260200190815260200160002060006101000a81548160ff021916908315150217905550505050565b6000809054906101000a900473ffffffffffffffffffffffffffffffffffffffff1673ffffffffffffffffffffffffffffffffffffffff163373ffffffffffffffffffffffffffffffffffffffff16146112a157600080fd5b6000809054906101000a900473ffffffffffffffffffffffffffffffffffffffff1673ffffffffffffffffffffffffffffffffffffffff16ff5b6112e433611d8f565b15611357576040517f08c379a00000000000000000000000000000000000000000000000000000000081526004018080602001828103825260178152602001807f766f757320657465732064656a6120696e73637269742100000000000000000081525060200191505060405180910390fd5b6001600260003373ffffffffffffffffffffffffffffffffffffffff1673ffffffffffffffffffffffffffffffffffffffff1681526020019081526020016000208190555080600360003373ffffffffffffffffffffffffffffffffffffffff1673ffffffffffffffffffffffffffffffffffffffff16815260200190815260200160002090805190602001906113ef929190612860565b5060018060003373ffffffffffffffffffffffffffffffffffffffff1673ffffffffffffffffffffffffffffffffffffffff16815260200190815260200160002060006101000a81548160ff02191690831515021790555050565b60006008541161145957600080fd5b60008111801561146b57506008548111155b61147457600080fd5b60006005600083815260200190815260200160002090506000600281111561149857fe5b8160060160009054906101000a900460ff1660028111156114b557fe5b146114bf57600080fd5b8060010160009054906101000a900473ffffffffffffffffffffffffffffffffffffffff1673ffffffffffffffffffffffffffffffffffffffff163373ffffffffffffffffffffffffffffffffffffffff16141561151c57600080fd5b61152533611d8f565b611597576040517f08c379a00000000000000000000000000000000000000000000000000000000081526004018080602001828103825260168152602001807f766575696c6c657a20766f757320696e7363726972650000000000000000000081525060200191505060405180910390fd5b8060070154600260003373ffffffffffffffffffffffffffffffffffffffff1673ffffffffffffffffffffffffffffffffffffffff168152602001908152602001600020541015611633576040517f08c379a00000000000000000000000000000000000000000000000000000000081526004018080602001828103825260328152602001806129866032913960400191505060405180910390fd5b6006600083815260200190815260200160002060003373ffffffffffffffffffffffffffffffffffffffff1673ffffffffffffffffffffffffffffffffffffffff16815260200190815260200160002060009054906101000a9050508060010160009054906101000a900473ffffffffffffffffffffffffffffffffffffffff16600d60003373ffffffffffffffffffffffffffffffffffffffff1673ffffffffffffffffffffffffffffffffffffffff16815260200190815260200160002060000160006101000a81548173ffffffffffffffffffffffffffffffffffffffff021916908373ffffffffffffffffffffffffffffffffffffffff16021790555060405180602001604052806000815250600d60003373ffffffffffffffffffffffffffffffffffffffff1673ffffffffffffffffffffffffffffffffffffffff1681526020019081526020016000206001019080519060200190611799929190612860565b503373ffffffffffffffffffffffffffffffffffffffff168160010160009054906101000a900473ffffffffffffffffffffffffffffffffffffffff1673ffffffffffffffffffffffffffffffffffffffff16837fae2647c8562dd1f0dcd0fda6fde9778c8c032274b43e5d1236825ec52569f386600360003373ffffffffffffffffffffffffffffffffffffffff1673ffffffffffffffffffffffffffffffffffffffff168152602001908152602001600020856003015460405180806020018381526020018281038252848181546001816001161561010002031660029004815260200191508054600181600116156101000203166002900480156118e15780601f106118b6576101008083540402835291602001916118e1565b820191906000526020600020905b8154815290600101906020018083116118c457829003601f168201915b5050935050505060405180910390a45050565b60066020528160005260406000206020528060005260406000206000915091509054906101000a900460ff1681565b60036020528060005260406000206000915090508054600181600116156101000203166002900480601f0160208091040260200160405190810160405280929190818152602001828054600181600116156101000203166002900480156119cb5780601f106119a0576101008083540402835291602001916119cb565b820191906000526020600020905b8154815290600101906020018083116119ae57829003601f168201915b505050505081565b3373ffffffffffffffffffffffffffffffffffffffff166005600083815260200190815260200160002060010160009054906101000a900473ffffffffffffffffffffffffffffffffffffffff1673ffffffffffffffffffffffffffffffffffffffff1614611a4157600080fd5b60026005600083815260200190815260200160002060060160006101000a81548160ff02191690836002811115611a7457fe5b021790555050565b60003373ffffffffffffffffffffffffffffffffffffffff166005600085815260200190815260200160002060010160009054906101000a900473ffffffffffffffffffffffffffffffffffffffff1673ffffffffffffffffffffffffffffffffffffffff1614611aec57600080fd5b600115156006600085815260200190815260200160002060008473ffffffffffffffffffffffffffffffffffffffff1673ffffffffffffffffffffffffffffffffffffffff16815260200190815260200160002060009054906101000a900460ff16151514611b5a57600080fd5b42600b6000858152602001908152602001600020541115611c0d576001600260008473ffffffffffffffffffffffffffffffffffffffff1673ffffffffffffffffffffffffffffffffffffffff1681526020019081526020016000205403600260008473ffffffffffffffffffffffffffffffffffffffff1673ffffffffffffffffffffffffffffffffffffffff16815260200190815260200160002081905550611c0482611c18565b60019050611c12565b600090505b92915050565b6000809054906101000a900473ffffffffffffffffffffffffffffffffffffffff1673ffffffffffffffffffffffffffffffffffffffff163373ffffffffffffffffffffffffffffffffffffffff161415611cca576001600460008373ffffffffffffffffffffffffffffffffffffffff1673ffffffffffffffffffffffffffffffffffffffff16815260200190815260200160002060006101000a81548160ff021916908315150217905550611d6c565b6000600260008373ffffffffffffffffffffffffffffffffffffffff1673ffffffffffffffffffffffffffffffffffffffff168152602001908152602001600020541415611d6b576001600460008373ffffffffffffffffffffffffffffffffffffffff1673ffffffffffffffffffffffffffffffffffffffff16815260200190815260200160002060006101000a81548160ff0219169083151502179055505b5b50565b60016020528060005260406000206000915054906101000a900460ff1681565b6000600160008373ffffffffffffffffffffffffffffffffffffffff1673ffffffffffffffffffffffffffffffffffffffff16815260200190815260200160002060009054906101000a900460ff1615611dec5760019050611df1565b600090505b919050565b60056020528060005260406000206000915090508060000154908060010160009054906101000a900473ffffffffffffffffffffffffffffffffffffffff16908060020160009054906101000a900473ffffffffffffffffffffffffffffffffffffffff1690806003015490806004015490806005018054600181600116156101000203166002900480601f016020809104026020016040519081016040528092919081815260200182805460018160011615610100020316600290048015611f005780601f10611ed557610100808354040283529160200191611f00565b820191906000526020600020905b815481529060010190602001808311611ee357829003601f168201915b5050505050908060060160009054906101000a900460ff16908060070154905088565b60026020528060005260406000206000915090505481565b611f4433611d8f565b611f4d57600080fd5b600460003373ffffffffffffffffffffffffffffffffffffffff1673ffffffffffffffffffffffffffffffffffffffff16815260200190815260200160002060009054906101000a900460ff1615611fa457600080fd5b600060646066860281611fb357fe5b049050803414611fc257600080fd5b6000600c60009054906101000a900473ffffffffffffffffffffffffffffffffffffffff1673ffffffffffffffffffffffffffffffffffffffff166108fc839081150290604051600060405180830381858888f1935050505015801561202c573d6000803e3d6000fd5b5060086000815480929190600101919050555060405180610100016040528060085481526020013373ffffffffffffffffffffffffffffffffffffffff1681526020018273ffffffffffffffffffffffffffffffffffffffff168152602001878152602001868152602001858152602001600060028111156120aa57fe5b8152602001848152506005600060085481526020019081526020016000206000820151816000015560208201518160010160006101000a81548173ffffffffffffffffffffffffffffffffffffffff021916908373ffffffffffffffffffffffffffffffffffffffff16021790555060408201518160020160006101000a81548173ffffffffffffffffffffffffffffffffffffffff021916908373ffffffffffffffffffffffffffffffffffffffff160217905550606082015181600301556080820151816004015560a08201518160050190805190602001906121909291906128e0565b5060c08201518160060160006101000a81548160ff021916908360028111156121b557fe5b021790555060e082015181600701559050503373ffffffffffffffffffffffffffffffffffffffff166008547fb64b67567ddff518d391fc669bf340a6614d524c62b16548fd387347323513f8600360003373ffffffffffffffffffffffffffffffffffffffff1673ffffffffffffffffffffffffffffffffffffffff1681526020019081526020016000208960405180806020018381526020018281038252848181546001816001161561010002031660029004815260200191508054600181600116156101000203166002900480156122d15780601f106122a6576101008083540402835291602001916122d1565b820191906000526020600020905b8154815290600101906020018083116122b457829003601f168201915b5050935050505060405180910390a3505050505050565b60608060085460405190808252806020026020018201604052801561231c5781602001602082028038833980820191505090505b50905060008090506000600190505b60085481116123e3573373ffffffffffffffffffffffffffffffffffffffff166005600083815260200190815260200160002060010160009054906101000a900473ffffffffffffffffffffffffffffffffffffffff1673ffffffffffffffffffffffffffffffffffffffff1614156123d65760056000828152602001908152602001600020600001548383815181106123c157fe5b60200260200101818152505081806001019250505b808060010191505061232b565b50806040519080825280602002602001820160405280156124135781602001602082028038833980820191505090505b50925060008090505b8181101561245d5782818151811061243057fe5b602002602001015184828151811061244457fe5b602002602001018181525050808060010191505061241c565b50829250505090565b81600d60003373ffffffffffffffffffffffffffffffffffffffff1673ffffffffffffffffffffffffffffffffffffffff16815260200190815260200160002060010190805190602001906124bc929190612860565b5062093a8042016009600083815260200190815260200160002060003373ffffffffffffffffffffffffffffffffffffffff1673ffffffffffffffffffffffffffffffffffffffff168152602001908152602001600020819055505050565b6060600360008373ffffffffffffffffffffffffffffffffffffffff1673ffffffffffffffffffffffffffffffffffffffff1681526020019081526020016000208054600181600116156101000203166002900480601f0160208091040260200160405190810160405280929190818152602001828054600181600116156101000203166002900480156125f05780601f106125c5576101008083540402835291602001916125f0565b820191906000526020600020905b8154815290600101906020018083116125d357829003601f168201915b50505050509050809050919050565b3373ffffffffffffffffffffffffffffffffffffffff166005600084815260200190815260200160002060010160009054906101000a900473ffffffffffffffffffffffffffffffffffffffff1673ffffffffffffffffffffffffffffffffffffffff161461266d57600080fd5b6000600281111561267a57fe5b6005600084815260200190815260200160002060060160009054906101000a900460ff1660028111156126a957fe5b146126b357600080fd5b42600560008481526020019081526020016000206004015401600b60008481526020019081526020016000208190555060016006600084815260200190815260200160002060008373ffffffffffffffffffffffffffffffffffffffff1673ffffffffffffffffffffffffffffffffffffffff16815260200190815260200160002060006101000a81548160ff02191690831515021790555060016005600084815260200190815260200160002060060160006101000a81548160ff0219169083600281111561277f57fe5b0217905550806005600084815260200190815260200160002060020160006101000a81548173ffffffffffffffffffffffffffffffffffffffff021916908373ffffffffffffffffffffffffffffffffffffffff16021790555060056000838152602001908152602001600020600301546007600084815260200190815260200160002060008373ffffffffffffffffffffffffffffffffffffffff1673ffffffffffffffffffffffffffffffffffffffff168152602001908152602001600020819055505050565b600b6020528060005260406000206000915090505481565b828054600181600116156101000203166002900490600052602060002090601f016020900481019282601f106128a157805160ff19168380011785556128cf565b828001600101855582156128cf579182015b828111156128ce5782518255916020019190600101906128b3565b5b5090506128dc9190612960565b5090565b828054600181600116156101000203166002900490600052602060002090601f016020900481019282601f1061292157805160ff191683800117855561294f565b8280016001018555821561294f579182015b8281111561294e578251825591602001919060010190612933565b5b50905061295c9190612960565b5090565b61298291905b8082111561297e576000816000905550600101612966565b5090565b9056fe72657075746174696f6e20696e737566666973616e746520706f757220616363656465722061206365747465206f66667265a265627a7a723158208895915c2b2b2d8e96f277adb5bdd28e8fdd5f6a3d884838423a1a1fa5c4423864736f6c634300050c0032",
  "source": "pragma solidity ^0.5.12;\n//pragma experimental ABIEncoderV2;\nimport \"./Ownable.sol\";\n\n\ncontract PlaceDeMarche is Ownable {\n\n  enum Etat {OUVERTE,ENCOURS,FERMEE}\n  mapping (address => bool) public membres;\n  mapping(address => uint256) public reputation;\n  mapping(address => string) public  names;\n  mapping (address => bool) private addressBannies; // address bannies true adress bannies false\n  mapping (uint => Demande) public demandes;\n  mapping (uint =>mapping(address=> bool))public candidates;\n  mapping(uint =>mapping(address=> uint256)) private _balance;\n  uint demandeCounter;\n mapping(uint => mapping(address =>uint)) private delytopay;\n mapping(uint => bool) private dejaPaye;\n mapping(uint => uint) public dataLimte;\n\n  address payable private wallet;\n  mapping (address => Link) private links;\n\n\n  struct Demande {\n    uint id;\n    address entreprise;\n    address illustrateur;\n    uint256 remuneration;\n    uint256 delai;\n    string description;\n    Etat etatDemande;\n    uint256 minReputation;\n\n }\n struct Link {\n  address entreprise;\n  string url;\n }\n\n event LogAjouterDemande(\n   uint indexed _id,\n   address indexed _entreprise,\n   string _name,\n   uint256 _remuneration\n );\n event LogPostuler(\n   uint indexed _id,\n   address indexed _entreprise,\n   address indexed _illustrateur,\n   string _name,\n   uint256 _remuneration\n );\n\n // deactivate the contract\n function kill() public onlyOwner {\n   selfdestruct(admin);\n }\n\n     constructor() public {\n\n         wallet = admin;\n         membres[admin]=true;\n         names[admin]= \"Administrateur\";\n\n    }\n\nfunction inscription(string memory nume) public  {\n    require(!estMembre(msg.sender),\"vous etes deja inscrit!\");\n     reputation[msg.sender] = 1;\n     names[msg.sender]= nume;\n     membres[msg.sender]=true;\n }\n\n function estMembre(address utilisateur) public view returns (bool) {\n\n            if (membres[utilisateur]) {\n                return true;\n            }else{\n\n        return false;\n            }\n    }\n\n    function ajouterDemande( uint256  _remuneration,uint256  _delai,string memory _description,uint256 _minReputation) public payable {\n        require(estMembre(msg.sender));\n        require(!addressBannies[msg.sender]);\n        uint256 amount = _remuneration*102/100;\n        require(msg.value == amount);\n        address illustrateur;\n        wallet.transfer(amount);\n        demandeCounter++;\n        demandes[demandeCounter] = Demande(\n          demandeCounter,\n          msg.sender,\n         illustrateur,\n          _remuneration,\n          _delai,\n          _description,\n          Etat.OUVERTE,\n          _minReputation\n\n          );\n\n          emit LogAjouterDemande(\n            demandeCounter,\n            msg.sender,\n            names[msg.sender],\n            _remuneration\n          );\n    }\n\n    function getNumberOfDemande() public view returns (uint) {\n      return demandeCounter;\n    }\n\n    function getDemandesOuverte() public view returns ( uint[] memory demandesOuverte) {\n      // prepare output array\n      uint[] memory demandeIds = new  uint[](demandeCounter);\n\n      uint numberOfDemandesOuverte = 0;\n      // iterate over articles\n      for(uint i = 1; i <= demandeCounter;  i++) {\n        // keep the ID if the article is still for sale\n        if(demandes[i].etatDemande == Etat.OUVERTE) {\n          demandeIds[numberOfDemandesOuverte] = demandes[i].id;\n          numberOfDemandesOuverte++;\n        }\n      }\n\n      // copy the articleIds array into a smaller forSale array\n      demandesOuverte = new uint[](numberOfDemandesOuverte);\n      for(uint j = 0; j < numberOfDemandesOuverte; j++) {\n        demandesOuverte[j] = demandeIds[j];\n      }\n      return demandesOuverte;\n    }\n    function getMesDemandes() public view returns ( uint[] memory Mesdemandes) {\n      // prepare output array\n      uint[] memory demandeIds = new  uint[](demandeCounter);\n\n      uint numberOfMesdemandes = 0;\n      // iterate over articles\n      for(uint i = 1; i <= demandeCounter;  i++) {\n        // keep the ID if the article is still for sale\n        if(demandes[i].entreprise == msg.sender) {\n          demandeIds[numberOfMesdemandes] = demandes[i].id;\n          numberOfMesdemandes++;\n        }\n      }\n\n      // copy the articleIds array into a smaller forSale array\n      Mesdemandes = new uint[](numberOfMesdemandes);\n      for(uint j = 0; j < numberOfMesdemandes; j++) {\n        Mesdemandes[j] = demandeIds[j];\n      }\n      return Mesdemandes;\n    }\n\n\n    function postuler(uint _indice) public {\n        //permet  un indpendant de proposer ses services. Il est alors ajout  la liste des candidats\n        require(demandeCounter > 0);\n\n        // we check that the article exists\n        require(_indice > 0 && _indice <= demandeCounter);\n\n        // we retrieve the article\n        Demande storage demende = demandes[_indice];\n\n        // we check that the article has not been sold yet\n        require(demende.etatDemande == Etat.OUVERTE);\n\n        // we don't allow the seller to buy his own article\n        require(msg.sender != demende.entreprise);\n        require(estMembre(msg.sender),\"veuillez vous inscrire\");\n        require(reputation[msg.sender]>= demende.minReputation, \"reputation insuffisante pour acceder a cette offre\");\n        candidates[_indice][msg.sender];\n        links[msg.sender].entreprise = demende.entreprise;\n        links[msg.sender].url = \"\";\n        emit LogPostuler(\n          _indice,\n          demende.entreprise,\n          msg.sender,\n          names[msg.sender],\n          demende.remuneration\n        );\n\n    }\n\n    function accepterOffre(uint indDemande, address _candidats) public {\n        //permet  lentreprise daccepter un illustrateur. La demande est alors ENCOURS jusqu sa remise\n        require(demandes[indDemande].entreprise == msg.sender);\n        require(demandes[indDemande].etatDemande == Etat.OUVERTE);\n        dataLimte[indDemande]= demandes[indDemande].delai+ now;\n        candidates[indDemande][_candidats]= true;\n        demandes[indDemande].etatDemande = Etat.ENCOURS;\n        demandes[indDemande].illustrateur = _candidats;\n        _balance[indDemande][_candidats] =demandes[indDemande].remuneration;\n\n\n    }\n\n     function livraison(string memory _url,uint _id) public {\n         links[msg.sender].url = _url;\n         delytopay[_id][msg.sender] = now + 604800;\n\n     }\n\n     function fermerDemande(uint _id) public {\n         require(demandes[_id].entreprise == msg.sender);\n         demandes[_id].etatDemande = Etat.FERMEE;\n     }\n\n     function sanctionne(address _membre) public {\n         if(msg.sender == admin){\n\n             addressBannies[_membre] = true;\n         }else{\n             if(reputation[_membre]== 0){\n                 addressBannies[_membre] = true;\n             }\n         }\n\n     }\n\n     function estEnRetard(uint indDemande, address _candidats) public  returns (bool){\n         require(demandes[indDemande].entreprise == msg.sender);\n         require(candidates[indDemande][_candidats]== true);\n         if(dataLimte[indDemande]>now){\n             reputation[_candidats] = reputation[_candidats] -1;\n             sanctionne(_candidats);\n             return true;\n         }else{\n             return false;\n\n         }\n\n     }\n     function satisfaction(address _membre,uint256 _satisfaction) public {\n\n         reputation[_membre] = reputation[_membre] + _satisfaction;\n     }\n\n     function transferToIllstrateur(address payable _illestrateur,uint _id) public {\n         require(msg.sender == admin);\n         require(!dejaPaye[_id]);\n         require(demandes[_id].illustrateur == _illestrateur);\n         require( demandes[_id].etatDemande == Etat.FERMEE || delytopay[_id][_illestrateur]<= now);\n         uint256 amount = demandes[_id].remuneration;\n         require(amount == _balance[_id][_illestrateur]);\n         _illestrateur.transfer(amount);\n         demandes[_id].etatDemande = Etat.FERMEE;\n         _balance[_id][_illestrateur]=0;\n         dejaPaye[_id]=true;\n\n     }\n\n     function getmembresName(address addr) public view returns (string memory nom){\n        nom = names[addr];\n       return nom;\n     }\n    function getAdminAdress() public view returns (address  addre){\n      addre = admin;\n      return addre;\n    }\n    function getDelyTopay(uint _id,address _illustrateur) public view returns (uint tmp){\n     tmp = delytopay[_id][_illustrateur];\n     return tmp;\n    }\n\n}\n",
  "sourcePath": "/home/ingmedical16/exercices/AlyraSchool/HomeWork/Semaine4/dife2/contracts/PlaceDeMarche.sol",
  "compiler": {
    "name": "solc",
    "version": "0.5.12+commit.7709ece9.Emscripten.clang"
  },
  "schemaVersion": "3.0.19",
  "updatedAt": "2019-11-19T03:33:58.186Z",
  "networkType": "ethereum",
  "devdoc": {
    "methods": {}
  },
  "userdoc": {
    "methods": {}
  }
}